{
  "_format": "hh-sol-artifact-1",
  "contractName": "Voting",
  "sourceName": "contracts/Voting.sol",
  "abi": [
    {
      "inputs": [],
      "stateMutability": "nonpayable",
      "type": "constructor"
    },
    {
      "inputs": [
        {
          "internalType": "address",
          "name": "owner",
          "type": "address"
        }
      ],
      "name": "OwnableInvalidOwner",
      "type": "error"
    },
    {
      "inputs": [
        {
          "internalType": "address",
          "name": "account",
          "type": "address"
        }
      ],
      "name": "OwnableUnauthorizedAccount",
      "type": "error"
    },
    {
      "anonymous": false,
      "inputs": [
        {
          "indexed": true,
          "internalType": "address",
          "name": "previousOwner",
          "type": "address"
        },
        {
          "indexed": true,
          "internalType": "address",
          "name": "newOwner",
          "type": "address"
        }
      ],
      "name": "OwnershipTransferred",
      "type": "event"
    },
    {
      "anonymous": false,
      "inputs": [
        {
          "indexed": false,
          "internalType": "uint256",
          "name": "proposalId",
          "type": "uint256"
        }
      ],
      "name": "ProposalRegistered",
      "type": "event"
    },
    {
      "anonymous": false,
      "inputs": [
        {
          "indexed": false,
          "internalType": "address",
          "name": "voter",
          "type": "address"
        },
        {
          "indexed": false,
          "internalType": "uint256",
          "name": "proposalId",
          "type": "uint256"
        }
      ],
      "name": "Voted",
      "type": "event"
    },
    {
      "anonymous": false,
      "inputs": [
        {
          "indexed": false,
          "internalType": "address",
          "name": "voterAddress",
          "type": "address"
        }
      ],
      "name": "VoterRegistered",
      "type": "event"
    },
    {
      "anonymous": false,
      "inputs": [
        {
          "indexed": false,
          "internalType": "enum Voting.WorkflowStatus",
          "name": "previousStatus",
          "type": "uint8"
        },
        {
          "indexed": false,
          "internalType": "enum Voting.WorkflowStatus",
          "name": "newStatus",
          "type": "uint8"
        }
      ],
      "name": "WorkflowStatusChange",
      "type": "event"
    },
    {
      "stateMutability": "payable",
      "type": "fallback"
    },
    {
      "inputs": [],
      "name": "askAccess",
      "outputs": [],
      "stateMutability": "nonpayable",
      "type": "function"
    },
    {
      "inputs": [],
      "name": "getCurrentStep",
      "outputs": [
        {
          "internalType": "enum Voting.WorkflowStatus",
          "name": "",
          "type": "uint8"
        }
      ],
      "stateMutability": "view",
      "type": "function"
    },
    {
      "inputs": [],
      "name": "getRequesters",
      "outputs": [
        {
          "internalType": "address[]",
          "name": "",
          "type": "address[]"
        }
      ],
      "stateMutability": "view",
      "type": "function"
    },
    {
      "inputs": [],
      "name": "getWinningProposal",
      "outputs": [
        {
          "components": [
            {
              "internalType": "string",
              "name": "description",
              "type": "string"
            },
            {
              "internalType": "uint256",
              "name": "voteCount",
              "type": "uint256"
            }
          ],
          "internalType": "struct Voting.Proposal[]",
          "name": "",
          "type": "tuple[]"
        }
      ],
      "stateMutability": "view",
      "type": "function"
    },
    {
      "inputs": [
        {
          "internalType": "address",
          "name": "_address",
          "type": "address"
        }
      ],
      "name": "isUserWhitelisted",
      "outputs": [
        {
          "internalType": "bool",
          "name": "",
          "type": "bool"
        }
      ],
      "stateMutability": "view",
      "type": "function"
    },
    {
      "inputs": [],
      "name": "nextStep",
      "outputs": [],
      "stateMutability": "nonpayable",
      "type": "function"
    },
    {
      "inputs": [],
      "name": "owner",
      "outputs": [
        {
          "internalType": "address",
          "name": "",
          "type": "address"
        }
      ],
      "stateMutability": "view",
      "type": "function"
    },
    {
      "inputs": [
        {
          "internalType": "string",
          "name": "_description",
          "type": "string"
        }
      ],
      "name": "registerProposal",
      "outputs": [],
      "stateMutability": "nonpayable",
      "type": "function"
    },
    {
      "inputs": [
        {
          "internalType": "uint256",
          "name": "_proposalId",
          "type": "uint256"
        }
      ],
      "name": "registerVote",
      "outputs": [],
      "stateMutability": "nonpayable",
      "type": "function"
    },
    {
      "inputs": [
        {
          "internalType": "address",
          "name": "_address",
          "type": "address"
        }
      ],
      "name": "registerVoters",
      "outputs": [],
      "stateMutability": "nonpayable",
      "type": "function"
    },
    {
      "inputs": [],
      "name": "renounceOwnership",
      "outputs": [],
      "stateMutability": "nonpayable",
      "type": "function"
    },
    {
      "inputs": [
        {
          "internalType": "address",
          "name": "newOwner",
          "type": "address"
        }
      ],
      "name": "transferOwnership",
      "outputs": [],
      "stateMutability": "nonpayable",
      "type": "function"
    },
    {
      "stateMutability": "payable",
      "type": "receive"
    }
  ],
  "bytecode": "0x60806040526000600960006101000a81548160ff021916908360058111156200002d576200002c620001e9565b5b02179055503480156200003f57600080fd5b5033600073ffffffffffffffffffffffffffffffffffffffff168173ffffffffffffffffffffffffffffffffffffffff1603620000b65760006040517f1e4fbdf7000000000000000000000000000000000000000000000000000000008152600401620000ad91906200025d565b60405180910390fd5b620000c7816200012560201b60201c565b5060018060003373ffffffffffffffffffffffffffffffffffffffff1673ffffffffffffffffffffffffffffffffffffffff16815260200190815260200160002060006101000a81548160ff0219169083151502179055506200027a565b60008060009054906101000a900473ffffffffffffffffffffffffffffffffffffffff169050816000806101000a81548173ffffffffffffffffffffffffffffffffffffffff021916908373ffffffffffffffffffffffffffffffffffffffff1602179055508173ffffffffffffffffffffffffffffffffffffffff168173ffffffffffffffffffffffffffffffffffffffff167f8be0079c531659141344cd1fd0a4f28419497f9722a3daafe3b4186f6b6457e060405160405180910390a35050565b7f4e487b7100000000000000000000000000000000000000000000000000000000600052602160045260246000fd5b600073ffffffffffffffffffffffffffffffffffffffff82169050919050565b6000620002458262000218565b9050919050565b620002578162000238565b82525050565b60006020820190506200027460008301846200024c565b92915050565b611dbc806200028a6000396000f3fe6080604052600436106100ab5760003560e01c8063a513462011610064578063a51346201461018a578063c9000726146101b5578063cb0830a3146101cc578063ed8a1608146101f7578063f2fde38b14610220578063fb237eb214610249576100b2565b8063181ceecb146100b45780631d3824ea146100cb5780632f95355b146100f6578063464d4a921461011f578063715018a6146101485780638da5cb5b1461015f576100b2565b366100b257005b005b3480156100c057600080fd5b506100c9610286565b005b3480156100d757600080fd5b506100e061033a565b6040516100ed9190611072565b60405180910390f35b34801561010257600080fd5b5061011d600480360381019061011891906111e7565b610351565b005b34801561012b57600080fd5b5061014660048036038101906101419190611266565b610550565b005b34801561015457600080fd5b5061015d61085c565b005b34801561016b57600080fd5b50610174610870565b60405161018191906112d4565b60405180910390f35b34801561019657600080fd5b5061019f610899565b6040516101ac919061147c565b60405180910390f35b3480156101c157600080fd5b506101ca610a19565b005b3480156101d857600080fd5b506101e1610b2b565b6040516101ee919061155c565b60405180910390f35b34801561020357600080fd5b5061021e600480360381019061021991906115aa565b610bb9565b005b34801561022c57600080fd5b50610247600480360381019061024291906115aa565b610d48565b005b34801561025557600080fd5b50610270600480360381019061026b91906115aa565b610dce565b60405161027d91906115f2565b60405180910390f35b6000600a80549050905080600560003373ffffffffffffffffffffffffffffffffffffffff1673ffffffffffffffffffffffffffffffffffffffff16815260200190815260200160002081905550600a339080600181540180825580915050600190039060005260206000200160009091909190916101000a81548173ffffffffffffffffffffffffffffffffffffffff021916908373ffffffffffffffffffffffffffffffffffffffff16021790555050565b6000600960009054906101000a900460ff16905090565b60011515600160003373ffffffffffffffffffffffffffffffffffffffff1673ffffffffffffffffffffffffffffffffffffffff16815260200190815260200160002060009054906101000a900460ff161515146103e4576040517f08c379a00000000000000000000000000000000000000000000000000000000081526004016103db90611690565b60405180910390fd5b600160058111156103f8576103f7610ffb565b5b600960009054906101000a900460ff16600581111561041a57610419610ffb565b5b1461045a576040517f08c379a0000000000000000000000000000000000000000000000000000000008152600401610451906116fc565b60405180910390fd5b3360036000600654815260200190815260200160002060006101000a81548173ffffffffffffffffffffffffffffffffffffffff021916908373ffffffffffffffffffffffffffffffffffffffff1602179055506040518060400160405280828152602001600081525060046000600654815260200190815260200160002060008201518160000190816104ee9190611928565b50602082015181600101559050506006600081548092919061050f90611a29565b91905055507f92e393e9b54e2f801d3ea4beb0c5e71a21cc34a5d34b77d0fb8a3aa1650dc18f6006546040516105459190611a80565b60405180910390a150565b60011515600160003373ffffffffffffffffffffffffffffffffffffffff1673ffffffffffffffffffffffffffffffffffffffff16815260200190815260200160002060009054906101000a900460ff161515146105e3576040517f08c379a00000000000000000000000000000000000000000000000000000000081526004016105da90611690565b60405180910390fd5b600360058111156105f7576105f6610ffb565b5b600960009054906101000a900460ff16600581111561061957610618610ffb565b5b14610659576040517f08c379a000000000000000000000000000000000000000000000000000000000815260040161065090611ae7565b60405180910390fd5b600654811061069d576040517f08c379a000000000000000000000000000000000000000000000000000000000815260040161069490611b79565b60405180910390fd5b60011515600260003373ffffffffffffffffffffffffffffffffffffffff1673ffffffffffffffffffffffffffffffffffffffff16815260200190815260200160002060009054906101000a900460ff16151503610730576040517f08c379a000000000000000000000000000000000000000000000000000000000815260040161072790611be5565b60405180910390fd5b6000600460008381526020019081526020016000206001016000815461075590611a29565b91905081905590506007548111156107935780600781905550604051806020016040528083815250600890600161078d929190610f77565b506107c7565b60075481036107c65760088290806001815401808255809150506001900390600052602060002001600090919091909150555b5b6001600260003373ffffffffffffffffffffffffffffffffffffffff1673ffffffffffffffffffffffffffffffffffffffff16815260200190815260200160002060006101000a81548160ff0219169083151502179055507f4d99b957a2bc29a30ebd96a7be8e68fe50a3c701db28a91436490b7d53870ca43383604051610850929190611c05565b60405180910390a15050565b610864610e24565b61086e6000610eab565b565b60008060009054906101000a900473ffffffffffffffffffffffffffffffffffffffff16905090565b6060600060088054905067ffffffffffffffff8111156108bc576108bb6110bc565b5b6040519080825280602002602001820160405280156108f557816020015b6108e2610fc4565b8152602001906001900390816108da5790505b50905060005b600880549050811015610a115760046000600883815481106109205761091f611c2e565b5b906000526020600020015481526020019081526020016000206040518060400160405290816000820180546109549061174b565b80601f01602080910402602001604051908101604052809291908181526020018280546109809061174b565b80156109cd5780601f106109a2576101008083540402835291602001916109cd565b820191906000526020600020905b8154815290600101906020018083116109b057829003601f168201915b505050505081526020016001820154815250508282815181106109f3576109f2611c2e565b5b60200260200101819052508080610a0990611a29565b9150506108fb565b508091505090565b610a21610e24565b7f0a97a4ee45751e2abf3e4fc8946939630b11b371ea8ae39ccdc3056e98f5cc3f600960009054906101000a900460ff1660066001600960009054906101000a900460ff166005811115610a7857610a77610ffb565b5b610a829190611c5d565b610a8c9190611cc0565b6005811115610a9e57610a9d610ffb565b5b604051610aac929190611cf1565b60405180910390a160066001600960009054906101000a900460ff166005811115610ada57610ad9610ffb565b5b610ae49190611c5d565b610aee9190611cc0565b6005811115610b0057610aff610ffb565b5b600960006101000a81548160ff02191690836005811115610b2457610b23610ffb565b5b0217905550565b6060600a805480602002602001604051908101604052809291908181526020018280548015610baf57602002820191906000526020600020905b8160009054906101000a900473ffffffffffffffffffffffffffffffffffffffff1673ffffffffffffffffffffffffffffffffffffffff1681526020019060010190808311610b65575b5050505050905090565b610bc1610e24565b60006005811115610bd557610bd4610ffb565b5b600960009054906101000a900460ff166005811115610bf757610bf6610ffb565b5b14610c37576040517f08c379a0000000000000000000000000000000000000000000000000000000008152600401610c2e90611d66565b60405180910390fd5b60018060008373ffffffffffffffffffffffffffffffffffffffff1673ffffffffffffffffffffffffffffffffffffffff16815260200190815260200160002060006101000a81548160ff021916908315150217905550600a600560003373ffffffffffffffffffffffffffffffffffffffff1673ffffffffffffffffffffffffffffffffffffffff1681526020019081526020016000205481548110610ce157610ce0611c2e565b5b9060005260206000200160006101000a81549073ffffffffffffffffffffffffffffffffffffffff02191690557fb6be2187d059cc2a55fe29e0e503b566e1e0f8c8780096e185429350acffd3dd81604051610d3d91906112d4565b60405180910390a150565b610d50610e24565b600073ffffffffffffffffffffffffffffffffffffffff168173ffffffffffffffffffffffffffffffffffffffff1603610dc25760006040517f1e4fbdf7000000000000000000000000000000000000000000000000000000008152600401610db991906112d4565b60405180910390fd5b610dcb81610eab565b50565b6000600160008373ffffffffffffffffffffffffffffffffffffffff1673ffffffffffffffffffffffffffffffffffffffff16815260200190815260200160002060009054906101000a900460ff169050919050565b610e2c610f6f565b73ffffffffffffffffffffffffffffffffffffffff16610e4a610870565b73ffffffffffffffffffffffffffffffffffffffff1614610ea957610e6d610f6f565b6040517f118cdaa7000000000000000000000000000000000000000000000000000000008152600401610ea091906112d4565b60405180910390fd5b565b60008060009054906101000a900473ffffffffffffffffffffffffffffffffffffffff169050816000806101000a81548173ffffffffffffffffffffffffffffffffffffffff021916908373ffffffffffffffffffffffffffffffffffffffff1602179055508173ffffffffffffffffffffffffffffffffffffffff168173ffffffffffffffffffffffffffffffffffffffff167f8be0079c531659141344cd1fd0a4f28419497f9722a3daafe3b4186f6b6457e060405160405180910390a35050565b600033905090565b828054828255906000526020600020908101928215610fb3579160200282015b82811115610fb2578251825591602001919060010190610f97565b5b509050610fc09190610fde565b5090565b604051806040016040528060608152602001600081525090565b5b80821115610ff7576000816000905550600101610fdf565b5090565b7f4e487b7100000000000000000000000000000000000000000000000000000000600052602160045260246000fd5b6006811061103b5761103a610ffb565b5b50565b600081905061104c8261102a565b919050565b600061105c8261103e565b9050919050565b61106c81611051565b82525050565b60006020820190506110876000830184611063565b92915050565b6000604051905090565b600080fd5b600080fd5b600080fd5b600080fd5b6000601f19601f8301169050919050565b7f4e487b7100000000000000000000000000000000000000000000000000000000600052604160045260246000fd5b6110f4826110ab565b810181811067ffffffffffffffff82111715611113576111126110bc565b5b80604052505050565b600061112661108d565b905061113282826110eb565b919050565b600067ffffffffffffffff821115611152576111516110bc565b5b61115b826110ab565b9050602081019050919050565b82818337600083830152505050565b600061118a61118584611137565b61111c565b9050828152602081018484840111156111a6576111a56110a6565b5b6111b1848285611168565b509392505050565b600082601f8301126111ce576111cd6110a1565b5b81356111de848260208601611177565b91505092915050565b6000602082840312156111fd576111fc611097565b5b600082013567ffffffffffffffff81111561121b5761121a61109c565b5b611227848285016111b9565b91505092915050565b6000819050919050565b61124381611230565b811461124e57600080fd5b50565b6000813590506112608161123a565b92915050565b60006020828403121561127c5761127b611097565b5b600061128a84828501611251565b91505092915050565b600073ffffffffffffffffffffffffffffffffffffffff82169050919050565b60006112be82611293565b9050919050565b6112ce816112b3565b82525050565b60006020820190506112e960008301846112c5565b92915050565b600081519050919050565b600082825260208201905092915050565b6000819050602082019050919050565b600081519050919050565b600082825260208201905092915050565b60005b8381101561135557808201518184015260208101905061133a565b60008484015250505050565b600061136c8261131b565b6113768185611326565b9350611386818560208601611337565b61138f816110ab565b840191505092915050565b6113a381611230565b82525050565b600060408301600083015184820360008601526113c68282611361565b91505060208301516113db602086018261139a565b508091505092915050565b60006113f283836113a9565b905092915050565b6000602082019050919050565b6000611412826112ef565b61141c81856112fa565b93508360208202850161142e8561130b565b8060005b8581101561146a578484038952815161144b85826113e6565b9450611456836113fa565b925060208a01995050600181019050611432565b50829750879550505050505092915050565b600060208201905081810360008301526114968184611407565b905092915050565b600081519050919050565b600082825260208201905092915050565b6000819050602082019050919050565b6114d3816112b3565b82525050565b60006114e583836114ca565b60208301905092915050565b6000602082019050919050565b60006115098261149e565b61151381856114a9565b935061151e836114ba565b8060005b8381101561154f57815161153688826114d9565b9750611541836114f1565b925050600181019050611522565b5085935050505092915050565b6000602082019050818103600083015261157681846114fe565b905092915050565b611587816112b3565b811461159257600080fd5b50565b6000813590506115a48161157e565b92915050565b6000602082840312156115c0576115bf611097565b5b60006115ce84828501611595565b91505092915050565b60008115159050919050565b6115ec816115d7565b82525050565b600060208201905061160760008301846115e3565b92915050565b600082825260208201905092915050565b7f43616e6e6f7420706572666f726d20616374696f6e206265636175736520796f60008201527f7520617265206e6f742077686974656c69737465642e00000000000000000000602082015250565b600061167a60368361160d565b91506116858261161e565b604082019050919050565b600060208201905081810360008301526116a98161166d565b9050919050565b7f43616e6e6f742072656769737465722070726f706f73616c207965742e000000600082015250565b60006116e6601d8361160d565b91506116f1826116b0565b602082019050919050565b60006020820190508181036000830152611715816116d9565b9050919050565b7f4e487b7100000000000000000000000000000000000000000000000000000000600052602260045260246000fd5b6000600282049050600182168061176357607f821691505b6020821081036117765761177561171c565b5b50919050565b60008190508160005260206000209050919050565b60006020601f8301049050919050565b600082821b905092915050565b6000600883026117de7fffffffffffffffffffffffffffffffffffffffffffffffffffffffffffffffff826117a1565b6117e886836117a1565b95508019841693508086168417925050509392505050565b6000819050919050565b600061182561182061181b84611230565b611800565b611230565b9050919050565b6000819050919050565b61183f8361180a565b61185361184b8261182c565b8484546117ae565b825550505050565b600090565b61186861185b565b611873818484611836565b505050565b5b818110156118975761188c600082611860565b600181019050611879565b5050565b601f8211156118dc576118ad8161177c565b6118b684611791565b810160208510156118c5578190505b6118d96118d185611791565b830182611878565b50505b505050565b600082821c905092915050565b60006118ff600019846008026118e1565b1980831691505092915050565b600061191883836118ee565b9150826002028217905092915050565b6119318261131b565b67ffffffffffffffff81111561194a576119496110bc565b5b611954825461174b565b61195f82828561189b565b600060209050601f8311600181146119925760008415611980578287015190505b61198a858261190c565b8655506119f2565b601f1984166119a08661177c565b60005b828110156119c8578489015182556001820191506020850194506020810190506119a3565b868310156119e557848901516119e1601f8916826118ee565b8355505b6001600288020188555050505b505050505050565b7f4e487b7100000000000000000000000000000000000000000000000000000000600052601160045260246000fd5b6000611a3482611230565b91507fffffffffffffffffffffffffffffffffffffffffffffffffffffffffffffffff8203611a6657611a656119fa565b5b600182019050919050565b611a7a81611230565b82525050565b6000602082019050611a956000830184611a71565b92915050565b7f43616e6e6f7420726567697374657220766f7465207965742e00000000000000600082015250565b6000611ad160198361160d565b9150611adc82611a9b565b602082019050919050565b60006020820190508181036000830152611b0081611ac4565b9050919050565b7f43616e6e6f7420766f746520666f7220756e646566696e65642070726f706f7360008201527f616c2e0000000000000000000000000000000000000000000000000000000000602082015250565b6000611b6360238361160d565b9150611b6e82611b07565b604082019050919050565b60006020820190508181036000830152611b9281611b56565b9050919050565b7f596f7520616c726561647920766f7465642e0000000000000000000000000000600082015250565b6000611bcf60128361160d565b9150611bda82611b99565b602082019050919050565b60006020820190508181036000830152611bfe81611bc2565b9050919050565b6000604082019050611c1a60008301856112c5565b611c276020830184611a71565b9392505050565b7f4e487b7100000000000000000000000000000000000000000000000000000000600052603260045260246000fd5b6000611c6882611230565b9150611c7383611230565b9250828201905080821115611c8b57611c8a6119fa565b5b92915050565b7f4e487b7100000000000000000000000000000000000000000000000000000000600052601260045260246000fd5b6000611ccb82611230565b9150611cd683611230565b925082611ce657611ce5611c91565b5b828206905092915050565b6000604082019050611d066000830185611063565b611d136020830184611063565b9392505050565b7f43616e6e6f7420726567697374657220766f74657273207965742e0000000000600082015250565b6000611d50601b8361160d565b9150611d5b82611d1a565b602082019050919050565b60006020820190508181036000830152611d7f81611d43565b905091905056fea26469706673582212202fb72a296ef4c22d4c4472b59f284e00cf2d7d644f7cc04bda851ebb428fdeee64736f6c63430008140033",
  "linkReferences": {},
  "deployedLinkReferences": {}
}