{
  "_format": "hh-sol-artifact-1",
  "contractName": "Voting",
  "sourceName": "contracts/Voting.sol",
  "abi": [
    {
      "inputs": [],
      "stateMutability": "nonpayable",
      "type": "constructor"
    },
    {
      "inputs": [
        {
          "internalType": "address",
          "name": "owner",
          "type": "address"
        }
      ],
      "name": "OwnableInvalidOwner",
      "type": "error"
    },
    {
      "inputs": [
        {
          "internalType": "address",
          "name": "account",
          "type": "address"
        }
      ],
      "name": "OwnableUnauthorizedAccount",
      "type": "error"
    },
    {
      "anonymous": false,
      "inputs": [
        {
          "indexed": true,
          "internalType": "address",
          "name": "previousOwner",
          "type": "address"
        },
        {
          "indexed": true,
          "internalType": "address",
          "name": "newOwner",
          "type": "address"
        }
      ],
      "name": "OwnershipTransferred",
      "type": "event"
    },
    {
      "anonymous": false,
      "inputs": [
        {
          "indexed": false,
          "internalType": "uint256",
          "name": "proposalId",
          "type": "uint256"
        }
      ],
      "name": "ProposalRegistered",
      "type": "event"
    },
    {
      "anonymous": false,
      "inputs": [
        {
          "indexed": false,
          "internalType": "address",
          "name": "voter",
          "type": "address"
        },
        {
          "indexed": false,
          "internalType": "uint256",
          "name": "proposalId",
          "type": "uint256"
        }
      ],
      "name": "Voted",
      "type": "event"
    },
    {
      "anonymous": false,
      "inputs": [
        {
          "indexed": false,
          "internalType": "address",
          "name": "voterAddress",
          "type": "address"
        }
      ],
      "name": "VoterRegistered",
      "type": "event"
    },
    {
      "anonymous": false,
      "inputs": [
        {
          "indexed": false,
          "internalType": "enum Voting.WorkflowStatus",
          "name": "previousStatus",
          "type": "uint8"
        },
        {
          "indexed": false,
          "internalType": "enum Voting.WorkflowStatus",
          "name": "newStatus",
          "type": "uint8"
        }
      ],
      "name": "WorkflowStatusChange",
      "type": "event"
    },
    {
      "stateMutability": "payable",
      "type": "fallback"
    },
    {
      "inputs": [],
      "name": "getCurrentStep",
      "outputs": [
        {
          "internalType": "enum Voting.WorkflowStatus",
          "name": "",
          "type": "uint8"
        }
      ],
      "stateMutability": "view",
      "type": "function"
    },
    {
      "inputs": [],
      "name": "getWinningProposal",
      "outputs": [
        {
          "components": [
            {
              "internalType": "string",
              "name": "description",
              "type": "string"
            },
            {
              "internalType": "uint256",
              "name": "voteCount",
              "type": "uint256"
            }
          ],
          "internalType": "struct Voting.Proposal[]",
          "name": "",
          "type": "tuple[]"
        }
      ],
      "stateMutability": "view",
      "type": "function"
    },
    {
      "inputs": [],
      "name": "nextStep",
      "outputs": [],
      "stateMutability": "nonpayable",
      "type": "function"
    },
    {
      "inputs": [],
      "name": "owner",
      "outputs": [
        {
          "internalType": "address",
          "name": "",
          "type": "address"
        }
      ],
      "stateMutability": "view",
      "type": "function"
    },
    {
      "inputs": [
        {
          "internalType": "string",
          "name": "_description",
          "type": "string"
        }
      ],
      "name": "registerProposal",
      "outputs": [],
      "stateMutability": "nonpayable",
      "type": "function"
    },
    {
      "inputs": [
        {
          "internalType": "uint256",
          "name": "_proposalId",
          "type": "uint256"
        }
      ],
      "name": "registerVote",
      "outputs": [],
      "stateMutability": "nonpayable",
      "type": "function"
    },
    {
      "inputs": [
        {
          "internalType": "address",
          "name": "_address",
          "type": "address"
        }
      ],
      "name": "registerVoters",
      "outputs": [],
      "stateMutability": "nonpayable",
      "type": "function"
    },
    {
      "inputs": [],
      "name": "renounceOwnership",
      "outputs": [],
      "stateMutability": "nonpayable",
      "type": "function"
    },
    {
      "inputs": [
        {
          "internalType": "address",
          "name": "newOwner",
          "type": "address"
        }
      ],
      "name": "transferOwnership",
      "outputs": [],
      "stateMutability": "nonpayable",
      "type": "function"
    },
    {
      "stateMutability": "payable",
      "type": "receive"
    }
  ],
  "bytecode": "0x60806040526000600860006101000a81548160ff021916908360058111156200002d576200002c620001e9565b5b02179055503480156200003f57600080fd5b5033600073ffffffffffffffffffffffffffffffffffffffff168173ffffffffffffffffffffffffffffffffffffffff1603620000b65760006040517f1e4fbdf7000000000000000000000000000000000000000000000000000000008152600401620000ad91906200025d565b60405180910390fd5b620000c7816200012560201b60201c565b5060018060003373ffffffffffffffffffffffffffffffffffffffff1673ffffffffffffffffffffffffffffffffffffffff16815260200190815260200160002060006101000a81548160ff0219169083151502179055506200027a565b60008060009054906101000a900473ffffffffffffffffffffffffffffffffffffffff169050816000806101000a81548173ffffffffffffffffffffffffffffffffffffffff021916908373ffffffffffffffffffffffffffffffffffffffff1602179055508173ffffffffffffffffffffffffffffffffffffffff168173ffffffffffffffffffffffffffffffffffffffff167f8be0079c531659141344cd1fd0a4f28419497f9722a3daafe3b4186f6b6457e060405160405180910390a35050565b7f4e487b7100000000000000000000000000000000000000000000000000000000600052602160045260246000fd5b600073ffffffffffffffffffffffffffffffffffffffff82169050919050565b6000620002458262000218565b9050919050565b620002578162000238565b82525050565b60006020820190506200027460008301846200024c565b92915050565b6119ee806200028a6000396000f3fe60806040526004361061008a5760003560e01c80638da5cb5b116100595780638da5cb5b14610127578063a513462014610152578063c90007261461017d578063ed8a160814610194578063f2fde38b146101bd57610091565b80631d3824ea146100935780632f95355b146100be578063464d4a92146100e7578063715018a61461011057610091565b3661009157005b005b34801561009f57600080fd5b506100a86101e6565b6040516100b59190610dba565b60405180910390f35b3480156100ca57600080fd5b506100e560048036038101906100e09190610f2f565b6101fd565b005b3480156100f357600080fd5b5061010e60048036038101906101099190610fae565b6103fc565b005b34801561011c57600080fd5b50610125610708565b005b34801561013357600080fd5b5061013c61071c565b604051610149919061101c565b60405180910390f35b34801561015e57600080fd5b50610167610745565b60405161017491906111c4565b60405180910390f35b34801561018957600080fd5b506101926108c5565b005b3480156101a057600080fd5b506101bb60048036038101906101b69190611212565b6109d7565b005b3480156101c957600080fd5b506101e460048036038101906101df9190611212565b610ae6565b005b6000600860009054906101000a900460ff16905090565b60011515600160003373ffffffffffffffffffffffffffffffffffffffff1673ffffffffffffffffffffffffffffffffffffffff16815260200190815260200160002060009054906101000a900460ff16151514610290576040517f08c379a0000000000000000000000000000000000000000000000000000000008152600401610287906112c2565b60405180910390fd5b600160058111156102a4576102a3610d43565b5b600860009054906101000a900460ff1660058111156102c6576102c5610d43565b5b14610306576040517f08c379a00000000000000000000000000000000000000000000000000000000081526004016102fd9061132e565b60405180910390fd5b3360036000600554815260200190815260200160002060006101000a81548173ffffffffffffffffffffffffffffffffffffffff021916908373ffffffffffffffffffffffffffffffffffffffff16021790555060405180604001604052808281526020016000815250600460006005548152602001908152602001600020600082015181600001908161039a919061155a565b5060208201518160010155905050600560008154809291906103bb9061165b565b91905055507f92e393e9b54e2f801d3ea4beb0c5e71a21cc34a5d34b77d0fb8a3aa1650dc18f6005546040516103f191906116b2565b60405180910390a150565b60011515600160003373ffffffffffffffffffffffffffffffffffffffff1673ffffffffffffffffffffffffffffffffffffffff16815260200190815260200160002060009054906101000a900460ff1615151461048f576040517f08c379a0000000000000000000000000000000000000000000000000000000008152600401610486906112c2565b60405180910390fd5b600360058111156104a3576104a2610d43565b5b600860009054906101000a900460ff1660058111156104c5576104c4610d43565b5b14610505576040517f08c379a00000000000000000000000000000000000000000000000000000000081526004016104fc90611719565b60405180910390fd5b6005548110610549576040517f08c379a0000000000000000000000000000000000000000000000000000000008152600401610540906117ab565b60405180910390fd5b60011515600260003373ffffffffffffffffffffffffffffffffffffffff1673ffffffffffffffffffffffffffffffffffffffff16815260200190815260200160002060009054906101000a900460ff161515036105dc576040517f08c379a00000000000000000000000000000000000000000000000000000000081526004016105d390611817565b60405180910390fd5b600060046000838152602001908152602001600020600101600081546106019061165b565b919050819055905060065481111561063f57806006819055506040518060200160405280838152506007906001610639929190610cbf565b50610673565b60065481036106725760078290806001815401808255809150506001900390600052602060002001600090919091909150555b5b6001600260003373ffffffffffffffffffffffffffffffffffffffff1673ffffffffffffffffffffffffffffffffffffffff16815260200190815260200160002060006101000a81548160ff0219169083151502179055507f4d99b957a2bc29a30ebd96a7be8e68fe50a3c701db28a91436490b7d53870ca433836040516106fc929190611837565b60405180910390a15050565b610710610b6c565b61071a6000610bf3565b565b60008060009054906101000a900473ffffffffffffffffffffffffffffffffffffffff16905090565b6060600060078054905067ffffffffffffffff81111561076857610767610e04565b5b6040519080825280602002602001820160405280156107a157816020015b61078e610d0c565b8152602001906001900390816107865790505b50905060005b6007805490508110156108bd5760046000600783815481106107cc576107cb611860565b5b906000526020600020015481526020019081526020016000206040518060400160405290816000820180546108009061137d565b80601f016020809104026020016040519081016040528092919081815260200182805461082c9061137d565b80156108795780601f1061084e57610100808354040283529160200191610879565b820191906000526020600020905b81548152906001019060200180831161085c57829003601f168201915b5050505050815260200160018201548152505082828151811061089f5761089e611860565b5b602002602001018190525080806108b59061165b565b9150506107a7565b508091505090565b6108cd610b6c565b7f0a97a4ee45751e2abf3e4fc8946939630b11b371ea8ae39ccdc3056e98f5cc3f600860009054906101000a900460ff1660066001600860009054906101000a900460ff16600581111561092457610923610d43565b5b61092e919061188f565b61093891906118f2565b600581111561094a57610949610d43565b5b604051610958929190611923565b60405180910390a160066001600860009054906101000a900460ff16600581111561098657610985610d43565b5b610990919061188f565b61099a91906118f2565b60058111156109ac576109ab610d43565b5b600860006101000a81548160ff021916908360058111156109d0576109cf610d43565b5b0217905550565b6109df610b6c565b600060058111156109f3576109f2610d43565b5b600860009054906101000a900460ff166005811115610a1557610a14610d43565b5b14610a55576040517f08c379a0000000000000000000000000000000000000000000000000000000008152600401610a4c90611998565b60405180910390fd5b60018060008373ffffffffffffffffffffffffffffffffffffffff1673ffffffffffffffffffffffffffffffffffffffff16815260200190815260200160002060006101000a81548160ff0219169083151502179055507fb6be2187d059cc2a55fe29e0e503b566e1e0f8c8780096e185429350acffd3dd81604051610adb919061101c565b60405180910390a150565b610aee610b6c565b600073ffffffffffffffffffffffffffffffffffffffff168173ffffffffffffffffffffffffffffffffffffffff1603610b605760006040517f1e4fbdf7000000000000000000000000000000000000000000000000000000008152600401610b57919061101c565b60405180910390fd5b610b6981610bf3565b50565b610b74610cb7565b73ffffffffffffffffffffffffffffffffffffffff16610b9261071c565b73ffffffffffffffffffffffffffffffffffffffff1614610bf157610bb5610cb7565b6040517f118cdaa7000000000000000000000000000000000000000000000000000000008152600401610be8919061101c565b60405180910390fd5b565b60008060009054906101000a900473ffffffffffffffffffffffffffffffffffffffff169050816000806101000a81548173ffffffffffffffffffffffffffffffffffffffff021916908373ffffffffffffffffffffffffffffffffffffffff1602179055508173ffffffffffffffffffffffffffffffffffffffff168173ffffffffffffffffffffffffffffffffffffffff167f8be0079c531659141344cd1fd0a4f28419497f9722a3daafe3b4186f6b6457e060405160405180910390a35050565b600033905090565b828054828255906000526020600020908101928215610cfb579160200282015b82811115610cfa578251825591602001919060010190610cdf565b5b509050610d089190610d26565b5090565b604051806040016040528060608152602001600081525090565b5b80821115610d3f576000816000905550600101610d27565b5090565b7f4e487b7100000000000000000000000000000000000000000000000000000000600052602160045260246000fd5b60068110610d8357610d82610d43565b5b50565b6000819050610d9482610d72565b919050565b6000610da482610d86565b9050919050565b610db481610d99565b82525050565b6000602082019050610dcf6000830184610dab565b92915050565b6000604051905090565b600080fd5b600080fd5b600080fd5b600080fd5b6000601f19601f8301169050919050565b7f4e487b7100000000000000000000000000000000000000000000000000000000600052604160045260246000fd5b610e3c82610df3565b810181811067ffffffffffffffff82111715610e5b57610e5a610e04565b5b80604052505050565b6000610e6e610dd5565b9050610e7a8282610e33565b919050565b600067ffffffffffffffff821115610e9a57610e99610e04565b5b610ea382610df3565b9050602081019050919050565b82818337600083830152505050565b6000610ed2610ecd84610e7f565b610e64565b905082815260208101848484011115610eee57610eed610dee565b5b610ef9848285610eb0565b509392505050565b600082601f830112610f1657610f15610de9565b5b8135610f26848260208601610ebf565b91505092915050565b600060208284031215610f4557610f44610ddf565b5b600082013567ffffffffffffffff811115610f6357610f62610de4565b5b610f6f84828501610f01565b91505092915050565b6000819050919050565b610f8b81610f78565b8114610f9657600080fd5b50565b600081359050610fa881610f82565b92915050565b600060208284031215610fc457610fc3610ddf565b5b6000610fd284828501610f99565b91505092915050565b600073ffffffffffffffffffffffffffffffffffffffff82169050919050565b600061100682610fdb565b9050919050565b61101681610ffb565b82525050565b6000602082019050611031600083018461100d565b92915050565b600081519050919050565b600082825260208201905092915050565b6000819050602082019050919050565b600081519050919050565b600082825260208201905092915050565b60005b8381101561109d578082015181840152602081019050611082565b60008484015250505050565b60006110b482611063565b6110be818561106e565b93506110ce81856020860161107f565b6110d781610df3565b840191505092915050565b6110eb81610f78565b82525050565b6000604083016000830151848203600086015261110e82826110a9565b915050602083015161112360208601826110e2565b508091505092915050565b600061113a83836110f1565b905092915050565b6000602082019050919050565b600061115a82611037565b6111648185611042565b93508360208202850161117685611053565b8060005b858110156111b25784840389528151611193858261112e565b945061119e83611142565b925060208a0199505060018101905061117a565b50829750879550505050505092915050565b600060208201905081810360008301526111de818461114f565b905092915050565b6111ef81610ffb565b81146111fa57600080fd5b50565b60008135905061120c816111e6565b92915050565b60006020828403121561122857611227610ddf565b5b6000611236848285016111fd565b91505092915050565b600082825260208201905092915050565b7f43616e6e6f7420706572666f726d20616374696f6e206265636175736520796f60008201527f7520617265206e6f742077686974656c69737465642e00000000000000000000602082015250565b60006112ac60368361123f565b91506112b782611250565b604082019050919050565b600060208201905081810360008301526112db8161129f565b9050919050565b7f43616e6e6f742072656769737465722070726f706f73616c207965742e000000600082015250565b6000611318601d8361123f565b9150611323826112e2565b602082019050919050565b600060208201905081810360008301526113478161130b565b9050919050565b7f4e487b7100000000000000000000000000000000000000000000000000000000600052602260045260246000fd5b6000600282049050600182168061139557607f821691505b6020821081036113a8576113a761134e565b5b50919050565b60008190508160005260206000209050919050565b60006020601f8301049050919050565b600082821b905092915050565b6000600883026114107fffffffffffffffffffffffffffffffffffffffffffffffffffffffffffffffff826113d3565b61141a86836113d3565b95508019841693508086168417925050509392505050565b6000819050919050565b600061145761145261144d84610f78565b611432565b610f78565b9050919050565b6000819050919050565b6114718361143c565b61148561147d8261145e565b8484546113e0565b825550505050565b600090565b61149a61148d565b6114a5818484611468565b505050565b5b818110156114c9576114be600082611492565b6001810190506114ab565b5050565b601f82111561150e576114df816113ae565b6114e8846113c3565b810160208510156114f7578190505b61150b611503856113c3565b8301826114aa565b50505b505050565b600082821c905092915050565b600061153160001984600802611513565b1980831691505092915050565b600061154a8383611520565b9150826002028217905092915050565b61156382611063565b67ffffffffffffffff81111561157c5761157b610e04565b5b611586825461137d565b6115918282856114cd565b600060209050601f8311600181146115c457600084156115b2578287015190505b6115bc858261153e565b865550611624565b601f1984166115d2866113ae565b60005b828110156115fa578489015182556001820191506020850194506020810190506115d5565b868310156116175784890151611613601f891682611520565b8355505b6001600288020188555050505b505050505050565b7f4e487b7100000000000000000000000000000000000000000000000000000000600052601160045260246000fd5b600061166682610f78565b91507fffffffffffffffffffffffffffffffffffffffffffffffffffffffffffffffff82036116985761169761162c565b5b600182019050919050565b6116ac81610f78565b82525050565b60006020820190506116c760008301846116a3565b92915050565b7f43616e6e6f7420726567697374657220766f7465207965742e00000000000000600082015250565b600061170360198361123f565b915061170e826116cd565b602082019050919050565b60006020820190508181036000830152611732816116f6565b9050919050565b7f43616e6e6f7420766f746520666f7220756e646566696e65642070726f706f7360008201527f616c2e0000000000000000000000000000000000000000000000000000000000602082015250565b600061179560238361123f565b91506117a082611739565b604082019050919050565b600060208201905081810360008301526117c481611788565b9050919050565b7f596f7520616c726561647920766f7465642e0000000000000000000000000000600082015250565b600061180160128361123f565b915061180c826117cb565b602082019050919050565b60006020820190508181036000830152611830816117f4565b9050919050565b600060408201905061184c600083018561100d565b61185960208301846116a3565b9392505050565b7f4e487b7100000000000000000000000000000000000000000000000000000000600052603260045260246000fd5b600061189a82610f78565b91506118a583610f78565b92508282019050808211156118bd576118bc61162c565b5b92915050565b7f4e487b7100000000000000000000000000000000000000000000000000000000600052601260045260246000fd5b60006118fd82610f78565b915061190883610f78565b925082611918576119176118c3565b5b828206905092915050565b60006040820190506119386000830185610dab565b6119456020830184610dab565b9392505050565b7f43616e6e6f7420726567697374657220766f74657273207965742e0000000000600082015250565b6000611982601b8361123f565b915061198d8261194c565b602082019050919050565b600060208201905081810360008301526119b181611975565b905091905056fea26469706673582212206fc223a391b68ba453f187e30918d3c3816648131ae56e21d5ba8324abc3e3d664736f6c63430008140033",
  "linkReferences": {},
  "deployedLinkReferences": {}
}