{
  "_format": "hh-sol-artifact-1",
  "contractName": "Voting",
  "sourceName": "contracts/Voting.sol",
  "abi": [
    {
      "inputs": [],
      "stateMutability": "nonpayable",
      "type": "constructor"
    },
    {
      "inputs": [
        {
          "internalType": "address",
          "name": "owner",
          "type": "address"
        }
      ],
      "name": "OwnableInvalidOwner",
      "type": "error"
    },
    {
      "inputs": [
        {
          "internalType": "address",
          "name": "account",
          "type": "address"
        }
      ],
      "name": "OwnableUnauthorizedAccount",
      "type": "error"
    },
    {
      "anonymous": false,
      "inputs": [
        {
          "indexed": true,
          "internalType": "address",
          "name": "previousOwner",
          "type": "address"
        },
        {
          "indexed": true,
          "internalType": "address",
          "name": "newOwner",
          "type": "address"
        }
      ],
      "name": "OwnershipTransferred",
      "type": "event"
    },
    {
      "anonymous": false,
      "inputs": [
        {
          "indexed": false,
          "internalType": "uint256",
          "name": "proposalId",
          "type": "uint256"
        }
      ],
      "name": "ProposalRegistered",
      "type": "event"
    },
    {
      "anonymous": false,
      "inputs": [
        {
          "indexed": false,
          "internalType": "address",
          "name": "voter",
          "type": "address"
        },
        {
          "indexed": false,
          "internalType": "uint256",
          "name": "proposalId",
          "type": "uint256"
        }
      ],
      "name": "Voted",
      "type": "event"
    },
    {
      "anonymous": false,
      "inputs": [
        {
          "indexed": false,
          "internalType": "address",
          "name": "voterAddress",
          "type": "address"
        }
      ],
      "name": "VoterRegistered",
      "type": "event"
    },
    {
      "anonymous": false,
      "inputs": [
        {
          "indexed": false,
          "internalType": "enum Voting.WorkflowStatus",
          "name": "previousStatus",
          "type": "uint8"
        },
        {
          "indexed": false,
          "internalType": "enum Voting.WorkflowStatus",
          "name": "newStatus",
          "type": "uint8"
        }
      ],
      "name": "WorkflowStatusChange",
      "type": "event"
    },
    {
      "inputs": [],
      "name": "getWinningProposal",
      "outputs": [
        {
          "components": [
            {
              "internalType": "string",
              "name": "description",
              "type": "string"
            },
            {
              "internalType": "uint256",
              "name": "voteCount",
              "type": "uint256"
            }
          ],
          "internalType": "struct Voting.Proposal[]",
          "name": "",
          "type": "tuple[]"
        }
      ],
      "stateMutability": "view",
      "type": "function"
    },
    {
      "inputs": [],
      "name": "nextStep",
      "outputs": [],
      "stateMutability": "nonpayable",
      "type": "function"
    },
    {
      "inputs": [],
      "name": "owner",
      "outputs": [
        {
          "internalType": "address",
          "name": "",
          "type": "address"
        }
      ],
      "stateMutability": "view",
      "type": "function"
    },
    {
      "inputs": [
        {
          "internalType": "string",
          "name": "_description",
          "type": "string"
        }
      ],
      "name": "registerProposal",
      "outputs": [],
      "stateMutability": "nonpayable",
      "type": "function"
    },
    {
      "inputs": [
        {
          "internalType": "uint256",
          "name": "_proposalId",
          "type": "uint256"
        }
      ],
      "name": "registerVote",
      "outputs": [],
      "stateMutability": "nonpayable",
      "type": "function"
    },
    {
      "inputs": [
        {
          "internalType": "address",
          "name": "_address",
          "type": "address"
        }
      ],
      "name": "registerVoters",
      "outputs": [],
      "stateMutability": "nonpayable",
      "type": "function"
    },
    {
      "inputs": [],
      "name": "renounceOwnership",
      "outputs": [],
      "stateMutability": "nonpayable",
      "type": "function"
    },
    {
      "inputs": [
        {
          "internalType": "address",
          "name": "newOwner",
          "type": "address"
        }
      ],
      "name": "transferOwnership",
      "outputs": [],
      "stateMutability": "nonpayable",
      "type": "function"
    }
  ],
  "bytecode": "0x60806040526000600860006101000a81548160ff021916908360058111156200002d576200002c620001e9565b5b02179055503480156200003f57600080fd5b5033600073ffffffffffffffffffffffffffffffffffffffff168173ffffffffffffffffffffffffffffffffffffffff1603620000b65760006040517f1e4fbdf7000000000000000000000000000000000000000000000000000000008152600401620000ad91906200025d565b60405180910390fd5b620000c7816200012560201b60201c565b5060018060003373ffffffffffffffffffffffffffffffffffffffff1673ffffffffffffffffffffffffffffffffffffffff16815260200190815260200160002060006101000a81548160ff0219169083151502179055506200027a565b60008060009054906101000a900473ffffffffffffffffffffffffffffffffffffffff169050816000806101000a81548173ffffffffffffffffffffffffffffffffffffffff021916908373ffffffffffffffffffffffffffffffffffffffff1602179055508173ffffffffffffffffffffffffffffffffffffffff168173ffffffffffffffffffffffffffffffffffffffff167f8be0079c531659141344cd1fd0a4f28419497f9722a3daafe3b4186f6b6457e060405160405180910390a35050565b7f4e487b7100000000000000000000000000000000000000000000000000000000600052602160045260246000fd5b600073ffffffffffffffffffffffffffffffffffffffff82169050919050565b6000620002458262000218565b9050919050565b620002578162000238565b82525050565b60006020820190506200027460008301846200024c565b92915050565b61198e806200028a6000396000f3fe608060405234801561001057600080fd5b50600436106100885760003560e01c8063a51346201161005b578063a5134620146100ed578063c90007261461010b578063ed8a160814610115578063f2fde38b1461013157610088565b80632f95355b1461008d578063464d4a92146100a9578063715018a6146100c55780638da5cb5b146100cf575b600080fd5b6100a760048036038101906100a29190610e4c565b61014d565b005b6100c360048036038101906100be9190610ecb565b61034c565b005b6100cd610659565b005b6100d761066d565b6040516100e49190610f39565b60405180910390f35b6100f5610696565b60405161010291906110e1565b60405180910390f35b61011361088c565b005b61012f600480360381019061012a919061112f565b610986565b005b61014b6004803603810190610146919061112f565b610a95565b005b60011515600160003373ffffffffffffffffffffffffffffffffffffffff1673ffffffffffffffffffffffffffffffffffffffff16815260200190815260200160002060009054906101000a900460ff161515146101e0576040517f08c379a00000000000000000000000000000000000000000000000000000000081526004016101d7906111df565b60405180910390fd5b600160058111156101f4576101f36111ff565b5b600860009054906101000a900460ff166005811115610216576102156111ff565b5b14610256576040517f08c379a000000000000000000000000000000000000000000000000000000000815260040161024d9061127a565b60405180910390fd5b3360036000600554815260200190815260200160002060006101000a81548173ffffffffffffffffffffffffffffffffffffffff021916908373ffffffffffffffffffffffffffffffffffffffff1602179055506040518060400160405280828152602001600081525060046000600554815260200190815260200160002060008201518160000190816102ea91906114a6565b50602082015181600101559050506005600081548092919061030b906115a7565b91905055507f92e393e9b54e2f801d3ea4beb0c5e71a21cc34a5d34b77d0fb8a3aa1650dc18f60055460405161034191906115fe565b60405180910390a150565b60011515600160003373ffffffffffffffffffffffffffffffffffffffff1673ffffffffffffffffffffffffffffffffffffffff16815260200190815260200160002060009054906101000a900460ff161515146103df576040517f08c379a00000000000000000000000000000000000000000000000000000000081526004016103d6906111df565b60405180910390fd5b600360058111156103f3576103f26111ff565b5b600860009054906101000a900460ff166005811115610415576104146111ff565b5b14610455576040517f08c379a000000000000000000000000000000000000000000000000000000000815260040161044c90611665565b60405180910390fd5b6005548110610499576040517f08c379a0000000000000000000000000000000000000000000000000000000008152600401610490906116f7565b60405180910390fd5b60011515600260003373ffffffffffffffffffffffffffffffffffffffff1673ffffffffffffffffffffffffffffffffffffffff16815260200190815260200160002060009054906101000a900460ff1615150361052c576040517f08c379a000000000000000000000000000000000000000000000000000000000815260040161052390611763565b60405180910390fd5b60006004600083815260200190815260200160002060010160008154610551906115a7565b919050819055905060065481111561058f57806006819055506040518060200160405280838152506007906001610589929190610c6e565b506105c4565b6006548111156105c35760078290806001815401808255809150506001900390600052602060002001600090919091909150555b5b6001600260003373ffffffffffffffffffffffffffffffffffffffff1673ffffffffffffffffffffffffffffffffffffffff16815260200190815260200160002060006101000a81548160ff0219169083151502179055507f4d99b957a2bc29a30ebd96a7be8e68fe50a3c701db28a91436490b7d53870ca4338360405161064d929190611783565b60405180910390a15050565b610661610b1b565b61066b6000610ba2565b565b60008060009054906101000a900473ffffffffffffffffffffffffffffffffffffffff16905090565b6060600460058111156106ac576106ab6111ff565b5b600860009054906101000a900460ff1660058111156106ce576106cd6111ff565b5b1461070e576040517f08c379a0000000000000000000000000000000000000000000000000000000008152600401610705906117f8565b60405180910390fd5b600060078054905067ffffffffffffffff81111561072f5761072e610d21565b5b60405190808252806020026020018201604052801561076857816020015b610755610cbb565b81526020019060019003908161074d5790505b50905060005b60078054905081101561088457600460006007838154811061079357610792611818565b5b906000526020600020015481526020019081526020016000206040518060400160405290816000820180546107c7906112c9565b80601f01602080910402602001604051908101604052809291908181526020018280546107f3906112c9565b80156108405780601f1061081557610100808354040283529160200191610840565b820191906000526020600020905b81548152906001019060200180831161082357829003601f168201915b5050505050815260200160018201548152505082828151811061086657610865611818565b5b6020026020010181905250808061087c906115a7565b91505061076e565b508091505090565b610894610b1b565b7f0a97a4ee45751e2abf3e4fc8946939630b11b371ea8ae39ccdc3056e98f5cc3f600860009054906101000a900460ff166001600860009054906101000a900460ff1660058111156108e9576108e86111ff565b5b6108f39190611847565b6005811115610905576109046111ff565b5b6040516109139291906118c3565b60405180910390a16001600860009054906101000a900460ff16600581111561093f5761093e6111ff565b5b6109499190611847565b600581111561095b5761095a6111ff565b5b600860006101000a81548160ff0219169083600581111561097f5761097e6111ff565b5b0217905550565b61098e610b1b565b600060058111156109a2576109a16111ff565b5b600860009054906101000a900460ff1660058111156109c4576109c36111ff565b5b14610a04576040517f08c379a00000000000000000000000000000000000000000000000000000000081526004016109fb90611938565b60405180910390fd5b60018060008373ffffffffffffffffffffffffffffffffffffffff1673ffffffffffffffffffffffffffffffffffffffff16815260200190815260200160002060006101000a81548160ff0219169083151502179055507fb6be2187d059cc2a55fe29e0e503b566e1e0f8c8780096e185429350acffd3dd81604051610a8a9190610f39565b60405180910390a150565b610a9d610b1b565b600073ffffffffffffffffffffffffffffffffffffffff168173ffffffffffffffffffffffffffffffffffffffff1603610b0f5760006040517f1e4fbdf7000000000000000000000000000000000000000000000000000000008152600401610b069190610f39565b60405180910390fd5b610b1881610ba2565b50565b610b23610c66565b73ffffffffffffffffffffffffffffffffffffffff16610b4161066d565b73ffffffffffffffffffffffffffffffffffffffff1614610ba057610b64610c66565b6040517f118cdaa7000000000000000000000000000000000000000000000000000000008152600401610b979190610f39565b60405180910390fd5b565b60008060009054906101000a900473ffffffffffffffffffffffffffffffffffffffff169050816000806101000a81548173ffffffffffffffffffffffffffffffffffffffff021916908373ffffffffffffffffffffffffffffffffffffffff1602179055508173ffffffffffffffffffffffffffffffffffffffff168173ffffffffffffffffffffffffffffffffffffffff167f8be0079c531659141344cd1fd0a4f28419497f9722a3daafe3b4186f6b6457e060405160405180910390a35050565b600033905090565b828054828255906000526020600020908101928215610caa579160200282015b82811115610ca9578251825591602001919060010190610c8e565b5b509050610cb79190610cd5565b5090565b604051806040016040528060608152602001600081525090565b5b80821115610cee576000816000905550600101610cd6565b5090565b6000604051905090565b600080fd5b600080fd5b600080fd5b600080fd5b6000601f19601f8301169050919050565b7f4e487b7100000000000000000000000000000000000000000000000000000000600052604160045260246000fd5b610d5982610d10565b810181811067ffffffffffffffff82111715610d7857610d77610d21565b5b80604052505050565b6000610d8b610cf2565b9050610d978282610d50565b919050565b600067ffffffffffffffff821115610db757610db6610d21565b5b610dc082610d10565b9050602081019050919050565b82818337600083830152505050565b6000610def610dea84610d9c565b610d81565b905082815260208101848484011115610e0b57610e0a610d0b565b5b610e16848285610dcd565b509392505050565b600082601f830112610e3357610e32610d06565b5b8135610e43848260208601610ddc565b91505092915050565b600060208284031215610e6257610e61610cfc565b5b600082013567ffffffffffffffff811115610e8057610e7f610d01565b5b610e8c84828501610e1e565b91505092915050565b6000819050919050565b610ea881610e95565b8114610eb357600080fd5b50565b600081359050610ec581610e9f565b92915050565b600060208284031215610ee157610ee0610cfc565b5b6000610eef84828501610eb6565b91505092915050565b600073ffffffffffffffffffffffffffffffffffffffff82169050919050565b6000610f2382610ef8565b9050919050565b610f3381610f18565b82525050565b6000602082019050610f4e6000830184610f2a565b92915050565b600081519050919050565b600082825260208201905092915050565b6000819050602082019050919050565b600081519050919050565b600082825260208201905092915050565b60005b83811015610fba578082015181840152602081019050610f9f565b60008484015250505050565b6000610fd182610f80565b610fdb8185610f8b565b9350610feb818560208601610f9c565b610ff481610d10565b840191505092915050565b61100881610e95565b82525050565b6000604083016000830151848203600086015261102b8282610fc6565b91505060208301516110406020860182610fff565b508091505092915050565b6000611057838361100e565b905092915050565b6000602082019050919050565b600061107782610f54565b6110818185610f5f565b93508360208202850161109385610f70565b8060005b858110156110cf57848403895281516110b0858261104b565b94506110bb8361105f565b925060208a01995050600181019050611097565b50829750879550505050505092915050565b600060208201905081810360008301526110fb818461106c565b905092915050565b61110c81610f18565b811461111757600080fd5b50565b60008135905061112981611103565b92915050565b60006020828403121561114557611144610cfc565b5b60006111538482850161111a565b91505092915050565b600082825260208201905092915050565b7f43616e6e6f7420706572666f726d20616374696f6e206265636175736520796f60008201527f7520617265206e6f742077686974656c69737465642e00000000000000000000602082015250565b60006111c960368361115c565b91506111d48261116d565b604082019050919050565b600060208201905081810360008301526111f8816111bc565b9050919050565b7f4e487b7100000000000000000000000000000000000000000000000000000000600052602160045260246000fd5b7f43616e6e6f742072656769737465722070726f706f73616c207965742e000000600082015250565b6000611264601d8361115c565b915061126f8261122e565b602082019050919050565b6000602082019050818103600083015261129381611257565b9050919050565b7f4e487b7100000000000000000000000000000000000000000000000000000000600052602260045260246000fd5b600060028204905060018216806112e157607f821691505b6020821081036112f4576112f361129a565b5b50919050565b60008190508160005260206000209050919050565b60006020601f8301049050919050565b600082821b905092915050565b60006008830261135c7fffffffffffffffffffffffffffffffffffffffffffffffffffffffffffffffff8261131f565b611366868361131f565b95508019841693508086168417925050509392505050565b6000819050919050565b60006113a361139e61139984610e95565b61137e565b610e95565b9050919050565b6000819050919050565b6113bd83611388565b6113d16113c9826113aa565b84845461132c565b825550505050565b600090565b6113e66113d9565b6113f18184846113b4565b505050565b5b818110156114155761140a6000826113de565b6001810190506113f7565b5050565b601f82111561145a5761142b816112fa565b6114348461130f565b81016020851015611443578190505b61145761144f8561130f565b8301826113f6565b50505b505050565b600082821c905092915050565b600061147d6000198460080261145f565b1980831691505092915050565b6000611496838361146c565b9150826002028217905092915050565b6114af82610f80565b67ffffffffffffffff8111156114c8576114c7610d21565b5b6114d282546112c9565b6114dd828285611419565b600060209050601f83116001811461151057600084156114fe578287015190505b611508858261148a565b865550611570565b601f19841661151e866112fa565b60005b8281101561154657848901518255600182019150602085019450602081019050611521565b86831015611563578489015161155f601f89168261146c565b8355505b6001600288020188555050505b505050505050565b7f4e487b7100000000000000000000000000000000000000000000000000000000600052601160045260246000fd5b60006115b282610e95565b91507fffffffffffffffffffffffffffffffffffffffffffffffffffffffffffffffff82036115e4576115e3611578565b5b600182019050919050565b6115f881610e95565b82525050565b600060208201905061161360008301846115ef565b92915050565b7f43616e6e6f7420726567697374657220766f7465207965742e00000000000000600082015250565b600061164f60198361115c565b915061165a82611619565b602082019050919050565b6000602082019050818103600083015261167e81611642565b9050919050565b7f43616e6e6f7420766f746520666f7220756e646566696e65642070726f706f7360008201527f616c2e0000000000000000000000000000000000000000000000000000000000602082015250565b60006116e160238361115c565b91506116ec82611685565b604082019050919050565b60006020820190508181036000830152611710816116d4565b9050919050565b7f596f7520616c726561647920766f7465642e0000000000000000000000000000600082015250565b600061174d60128361115c565b915061175882611717565b602082019050919050565b6000602082019050818103600083015261177c81611740565b9050919050565b60006040820190506117986000830185610f2a565b6117a560208301846115ef565b9392505050565b7f43616e6e6f74206765742077696e6e6572207965742e00000000000000000000600082015250565b60006117e260168361115c565b91506117ed826117ac565b602082019050919050565b60006020820190508181036000830152611811816117d5565b9050919050565b7f4e487b7100000000000000000000000000000000000000000000000000000000600052603260045260246000fd5b600061185282610e95565b915061185d83610e95565b925082820190508082111561187557611874611578565b5b92915050565b6006811061188c5761188b6111ff565b5b50565b600081905061189d8261187b565b919050565b60006118ad8261188f565b9050919050565b6118bd816118a2565b82525050565b60006040820190506118d860008301856118b4565b6118e560208301846118b4565b9392505050565b7f43616e6e6f7420726567697374657220766f74657273207965742e0000000000600082015250565b6000611922601b8361115c565b915061192d826118ec565b602082019050919050565b6000602082019050818103600083015261195181611915565b905091905056fea26469706673582212201ec5c8857f0f69c45cb3c9df3da24899edda195a38e44e9f2c49b180687f9de964736f6c63430008140033",
  "linkReferences": {},
  "deployedLinkReferences": {}
}