{
  "_format": "hh-sol-artifact-1",
  "contractName": "Voting",
  "sourceName": "contracts/Voting.sol",
  "abi": [
    {
      "inputs": [],
      "stateMutability": "nonpayable",
      "type": "constructor"
    },
    {
      "inputs": [
        {
          "internalType": "address",
          "name": "owner",
          "type": "address"
        }
      ],
      "name": "OwnableInvalidOwner",
      "type": "error"
    },
    {
      "inputs": [
        {
          "internalType": "address",
          "name": "account",
          "type": "address"
        }
      ],
      "name": "OwnableUnauthorizedAccount",
      "type": "error"
    },
    {
      "anonymous": false,
      "inputs": [
        {
          "indexed": true,
          "internalType": "address",
          "name": "previousOwner",
          "type": "address"
        },
        {
          "indexed": true,
          "internalType": "address",
          "name": "newOwner",
          "type": "address"
        }
      ],
      "name": "OwnershipTransferred",
      "type": "event"
    },
    {
      "anonymous": false,
      "inputs": [
        {
          "indexed": false,
          "internalType": "uint256",
          "name": "proposalId",
          "type": "uint256"
        }
      ],
      "name": "ProposalRegistered",
      "type": "event"
    },
    {
      "anonymous": false,
      "inputs": [
        {
          "indexed": false,
          "internalType": "address",
          "name": "voter",
          "type": "address"
        },
        {
          "indexed": false,
          "internalType": "uint256",
          "name": "proposalId",
          "type": "uint256"
        }
      ],
      "name": "Voted",
      "type": "event"
    },
    {
      "anonymous": false,
      "inputs": [
        {
          "indexed": false,
          "internalType": "address",
          "name": "voterAddress",
          "type": "address"
        }
      ],
      "name": "VoterRegistered",
      "type": "event"
    },
    {
      "anonymous": false,
      "inputs": [
        {
          "indexed": false,
          "internalType": "enum Voting.WorkflowStatus",
          "name": "previousStatus",
          "type": "uint8"
        },
        {
          "indexed": false,
          "internalType": "enum Voting.WorkflowStatus",
          "name": "newStatus",
          "type": "uint8"
        }
      ],
      "name": "WorkflowStatusChange",
      "type": "event"
    },
    {
      "stateMutability": "payable",
      "type": "fallback"
    },
    {
      "inputs": [],
      "name": "askAccess",
      "outputs": [],
      "stateMutability": "nonpayable",
      "type": "function"
    },
    {
      "inputs": [],
      "name": "getAllProposals",
      "outputs": [
        {
          "components": [
            {
              "internalType": "address",
              "name": "owner",
              "type": "address"
            },
            {
              "components": [
                {
                  "internalType": "string",
                  "name": "description",
                  "type": "string"
                },
                {
                  "internalType": "uint256",
                  "name": "voteCount",
                  "type": "uint256"
                }
              ],
              "internalType": "struct Voting.Proposal",
              "name": "proposal",
              "type": "tuple"
            },
            {
              "internalType": "uint256",
              "name": "id",
              "type": "uint256"
            }
          ],
          "internalType": "struct Voting.Proposition[]",
          "name": "",
          "type": "tuple[]"
        }
      ],
      "stateMutability": "view",
      "type": "function"
    },
    {
      "inputs": [],
      "name": "getCurrentStep",
      "outputs": [
        {
          "internalType": "enum Voting.WorkflowStatus",
          "name": "",
          "type": "uint8"
        }
      ],
      "stateMutability": "view",
      "type": "function"
    },
    {
      "inputs": [],
      "name": "getRequesters",
      "outputs": [
        {
          "internalType": "address[]",
          "name": "",
          "type": "address[]"
        }
      ],
      "stateMutability": "view",
      "type": "function"
    },
    {
      "inputs": [
        {
          "internalType": "address",
          "name": "_address",
          "type": "address"
        }
      ],
      "name": "getUserHasVoted",
      "outputs": [
        {
          "internalType": "bool",
          "name": "",
          "type": "bool"
        }
      ],
      "stateMutability": "view",
      "type": "function"
    },
    {
      "inputs": [
        {
          "internalType": "address",
          "name": "_address",
          "type": "address"
        }
      ],
      "name": "getUserVote",
      "outputs": [
        {
          "internalType": "uint256",
          "name": "",
          "type": "uint256"
        }
      ],
      "stateMutability": "view",
      "type": "function"
    },
    {
      "inputs": [],
      "name": "getWinningProposal",
      "outputs": [
        {
          "components": [
            {
              "internalType": "address",
              "name": "owner",
              "type": "address"
            },
            {
              "components": [
                {
                  "internalType": "string",
                  "name": "description",
                  "type": "string"
                },
                {
                  "internalType": "uint256",
                  "name": "voteCount",
                  "type": "uint256"
                }
              ],
              "internalType": "struct Voting.Proposal",
              "name": "proposal",
              "type": "tuple"
            },
            {
              "internalType": "uint256",
              "name": "id",
              "type": "uint256"
            }
          ],
          "internalType": "struct Voting.Proposition[]",
          "name": "",
          "type": "tuple[]"
        }
      ],
      "stateMutability": "view",
      "type": "function"
    },
    {
      "inputs": [
        {
          "internalType": "address",
          "name": "_address",
          "type": "address"
        }
      ],
      "name": "isUserWhitelisted",
      "outputs": [
        {
          "internalType": "bool",
          "name": "",
          "type": "bool"
        }
      ],
      "stateMutability": "view",
      "type": "function"
    },
    {
      "inputs": [],
      "name": "nextStep",
      "outputs": [],
      "stateMutability": "nonpayable",
      "type": "function"
    },
    {
      "inputs": [],
      "name": "owner",
      "outputs": [
        {
          "internalType": "address",
          "name": "",
          "type": "address"
        }
      ],
      "stateMutability": "view",
      "type": "function"
    },
    {
      "inputs": [
        {
          "internalType": "string",
          "name": "_description",
          "type": "string"
        }
      ],
      "name": "registerProposal",
      "outputs": [],
      "stateMutability": "nonpayable",
      "type": "function"
    },
    {
      "inputs": [
        {
          "internalType": "uint256",
          "name": "_proposalId",
          "type": "uint256"
        }
      ],
      "name": "registerVote",
      "outputs": [],
      "stateMutability": "nonpayable",
      "type": "function"
    },
    {
      "inputs": [
        {
          "internalType": "address",
          "name": "_address",
          "type": "address"
        }
      ],
      "name": "registerVoters",
      "outputs": [],
      "stateMutability": "nonpayable",
      "type": "function"
    },
    {
      "inputs": [],
      "name": "renounceOwnership",
      "outputs": [],
      "stateMutability": "nonpayable",
      "type": "function"
    },
    {
      "inputs": [
        {
          "internalType": "address",
          "name": "newOwner",
          "type": "address"
        }
      ],
      "name": "transferOwnership",
      "outputs": [],
      "stateMutability": "nonpayable",
      "type": "function"
    },
    {
      "stateMutability": "payable",
      "type": "receive"
    }
  ],
  "bytecode": "0x60806040526000600a60006101000a81548160ff021916908360058111156200002d576200002c620001e9565b5b02179055503480156200003f57600080fd5b5033600073ffffffffffffffffffffffffffffffffffffffff168173ffffffffffffffffffffffffffffffffffffffff1603620000b65760006040517f1e4fbdf7000000000000000000000000000000000000000000000000000000008152600401620000ad91906200025d565b60405180910390fd5b620000c7816200012560201b60201c565b5060018060003373ffffffffffffffffffffffffffffffffffffffff1673ffffffffffffffffffffffffffffffffffffffff16815260200190815260200160002060006101000a81548160ff0219169083151502179055506200027a565b60008060009054906101000a900473ffffffffffffffffffffffffffffffffffffffff169050816000806101000a81548173ffffffffffffffffffffffffffffffffffffffff021916908373ffffffffffffffffffffffffffffffffffffffff1602179055508173ffffffffffffffffffffffffffffffffffffffff168173ffffffffffffffffffffffffffffffffffffffff167f8be0079c531659141344cd1fd0a4f28419497f9722a3daafe3b4186f6b6457e060405160405180910390a35050565b7f4e487b7100000000000000000000000000000000000000000000000000000000600052602160045260246000fd5b600073ffffffffffffffffffffffffffffffffffffffff82169050919050565b6000620002458262000218565b9050919050565b620002578162000238565b82525050565b60006020820190506200027460008301846200024c565b92915050565b61232a806200028a6000396000f3fe6080604052600436106100ec5760003560e01c8063c90007261161008a578063ed8a160811610059578063ed8a1608146102a0578063f2c03d89146102c9578063f2fde38b14610306578063fb237eb21461032f576100f3565b8063c9000726146101f6578063cb0830a31461020d578063cceb68f514610238578063d4923d4e14610263576100f3565b8063464d4a92116100c6578063464d4a9214610160578063715018a6146101895780638da5cb5b146101a0578063a5134620146101cb576100f3565b8063181ceecb146100f55780631d3824ea1461010c5780632f95355b14610137576100f3565b366100f357005b005b34801561010157600080fd5b5061010a61036c565b005b34801561011857600080fd5b50610121610420565b60405161012e9190611524565b60405180910390f35b34801561014357600080fd5b5061015e60048036038101906101599190611699565b610437565b005b34801561016c57600080fd5b5061018760048036038101906101829190611718565b610636565b005b34801561019557600080fd5b5061019e610986565b005b3480156101ac57600080fd5b506101b561099a565b6040516101c29190611786565b60405180910390f35b3480156101d757600080fd5b506101e06109c3565b6040516101ed919061198d565b60405180910390f35b34801561020257600080fd5b5061020b610ba6565b005b34801561021957600080fd5b50610222610cb8565b60405161022f9190611a5e565b60405180910390f35b34801561024457600080fd5b5061024d610d46565b60405161025a919061198d565b60405180910390f35b34801561026f57600080fd5b5061028a60048036038101906102859190611aac565b610f03565b6040516102979190611ae8565b60405180910390f35b3480156102ac57600080fd5b506102c760048036038101906102c29190611aac565b610fd8565b005b3480156102d557600080fd5b506102f060048036038101906102eb9190611aac565b611167565b6040516102fd9190611b1e565b60405180910390f35b34801561031257600080fd5b5061032d60048036038101906103289190611aac565b6111bd565b005b34801561033b57600080fd5b5061035660048036038101906103519190611aac565b611243565b6040516103639190611b1e565b60405180910390f35b6000600b80549050905080600660003373ffffffffffffffffffffffffffffffffffffffff1673ffffffffffffffffffffffffffffffffffffffff16815260200190815260200160002081905550600b339080600181540180825580915050600190039060005260206000200160009091909190916101000a81548173ffffffffffffffffffffffffffffffffffffffff021916908373ffffffffffffffffffffffffffffffffffffffff16021790555050565b6000600a60009054906101000a900460ff16905090565b60011515600160003373ffffffffffffffffffffffffffffffffffffffff1673ffffffffffffffffffffffffffffffffffffffff16815260200190815260200160002060009054906101000a900460ff161515146104ca576040517f08c379a00000000000000000000000000000000000000000000000000000000081526004016104c190611bbc565b60405180910390fd5b600160058111156104de576104dd6114ad565b5b600a60009054906101000a900460ff166005811115610500576104ff6114ad565b5b14610540576040517f08c379a000000000000000000000000000000000000000000000000000000000815260040161053790611c28565b60405180910390fd5b3360046000600754815260200190815260200160002060006101000a81548173ffffffffffffffffffffffffffffffffffffffff021916908373ffffffffffffffffffffffffffffffffffffffff1602179055506040518060400160405280828152602001600081525060056000600754815260200190815260200160002060008201518160000190816105d49190611e54565b5060208201518160010155905050600760008154809291906105f590611f55565b91905055507f92e393e9b54e2f801d3ea4beb0c5e71a21cc34a5d34b77d0fb8a3aa1650dc18f60075460405161062b9190611ae8565b60405180910390a150565b60011515600160003373ffffffffffffffffffffffffffffffffffffffff1673ffffffffffffffffffffffffffffffffffffffff16815260200190815260200160002060009054906101000a900460ff161515146106c9576040517f08c379a00000000000000000000000000000000000000000000000000000000081526004016106c090611bbc565b60405180910390fd5b600360058111156106dd576106dc6114ad565b5b600a60009054906101000a900460ff1660058111156106ff576106fe6114ad565b5b1461073f576040517f08c379a000000000000000000000000000000000000000000000000000000000815260040161073690611fe9565b60405180910390fd5b6007548110610783576040517f08c379a000000000000000000000000000000000000000000000000000000000815260040161077a9061207b565b60405180910390fd5b60011515600260003373ffffffffffffffffffffffffffffffffffffffff1673ffffffffffffffffffffffffffffffffffffffff16815260200190815260200160002060009054906101000a900460ff16151503610816576040517f08c379a000000000000000000000000000000000000000000000000000000000815260040161080d906120e7565b60405180910390fd5b6000600560008381526020019081526020016000206001016000815461083b90611f55565b9190508190559050600854811115610879578060088190555060405180602001604052808381525060099060016108739291906113ec565b506108ad565b60085481036108ac5760098290806001815401808255809150506001900390600052602060002001600090919091909150555b5b6001600260003373ffffffffffffffffffffffffffffffffffffffff1673ffffffffffffffffffffffffffffffffffffffff16815260200190815260200160002060006101000a81548160ff02191690831515021790555081600360003373ffffffffffffffffffffffffffffffffffffffff1673ffffffffffffffffffffffffffffffffffffffff168152602001908152602001600020819055507f4d99b957a2bc29a30ebd96a7be8e68fe50a3c701db28a91436490b7d53870ca4338360405161097a929190612107565b60405180910390a15050565b61098e611299565b6109986000611320565b565b60008060009054906101000a900473ffffffffffffffffffffffffffffffffffffffff16905090565b6060600060098054905067ffffffffffffffff8111156109e6576109e561156e565b5b604051908082528060200260200182016040528015610a1f57816020015b610a0c611439565b815260200190600190039081610a045790505b50905060005b600980549050811015610b9e57600060098281548110610a4857610a47612130565b5b9060005260206000200154905060405180606001604052806004600084815260200190815260200160002060009054906101000a900473ffffffffffffffffffffffffffffffffffffffff1673ffffffffffffffffffffffffffffffffffffffff16815260200160056000848152602001908152602001600020604051806040016040529081600082018054610add90611c77565b80601f0160208091040260200160405190810160405280929190818152602001828054610b0990611c77565b8015610b565780601f10610b2b57610100808354040283529160200191610b56565b820191906000526020600020905b815481529060010190602001808311610b3957829003601f168201915b50505050508152602001600182015481525050815260200182815250838381518110610b8557610b84612130565b5b6020026020010181905250508080600101915050610a25565b508091505090565b610bae611299565b7f0a97a4ee45751e2abf3e4fc8946939630b11b371ea8ae39ccdc3056e98f5cc3f600a60009054906101000a900460ff1660066001600a60009054906101000a900460ff166005811115610c0557610c046114ad565b5b610c0f919061215f565b610c1991906121c2565b6005811115610c2b57610c2a6114ad565b5b604051610c399291906121f3565b60405180910390a160066001600a60009054906101000a900460ff166005811115610c6757610c666114ad565b5b610c71919061215f565b610c7b91906121c2565b6005811115610c8d57610c8c6114ad565b5b600a60006101000a81548160ff02191690836005811115610cb157610cb06114ad565b5b0217905550565b6060600b805480602002602001604051908101604052809291908181526020018280548015610d3c57602002820191906000526020600020905b8160009054906101000a900473ffffffffffffffffffffffffffffffffffffffff1673ffffffffffffffffffffffffffffffffffffffff1681526020019060010190808311610cf2575b5050505050905090565b60606000600754905060008167ffffffffffffffff811115610d6b57610d6a61156e565b5b604051908082528060200260200182016040528015610da457816020015b610d91611439565b815260200190600190039081610d895790505b50905060005b82811015610efa5760405180606001604052806004600084815260200190815260200160002060009054906101000a900473ffffffffffffffffffffffffffffffffffffffff1673ffffffffffffffffffffffffffffffffffffffff16815260200160056000848152602001908152602001600020604051806040016040529081600082018054610e3a90611c77565b80601f0160208091040260200160405190810160405280929190818152602001828054610e6690611c77565b8015610eb35780601f10610e8857610100808354040283529160200191610eb3565b820191906000526020600020905b815481529060010190602001808311610e9657829003601f168201915b50505050508152602001600182015481525050815260200182815250828281518110610ee257610ee1612130565b5b60200260200101819052508080600101915050610daa565b50809250505090565b6000600260008373ffffffffffffffffffffffffffffffffffffffff1673ffffffffffffffffffffffffffffffffffffffff16815260200190815260200160002060009054906101000a900460ff16610f91576040517f08c379a0000000000000000000000000000000000000000000000000000000008152600401610f8890612268565b60405180910390fd5b600360008373ffffffffffffffffffffffffffffffffffffffff1673ffffffffffffffffffffffffffffffffffffffff168152602001908152602001600020549050919050565b610fe0611299565b60006005811115610ff457610ff36114ad565b5b600a60009054906101000a900460ff166005811115611016576110156114ad565b5b14611056576040517f08c379a000000000000000000000000000000000000000000000000000000000815260040161104d906122d4565b60405180910390fd5b60018060008373ffffffffffffffffffffffffffffffffffffffff1673ffffffffffffffffffffffffffffffffffffffff16815260200190815260200160002060006101000a81548160ff021916908315150217905550600b600660003373ffffffffffffffffffffffffffffffffffffffff1673ffffffffffffffffffffffffffffffffffffffff1681526020019081526020016000205481548110611100576110ff612130565b5b9060005260206000200160006101000a81549073ffffffffffffffffffffffffffffffffffffffff02191690557fb6be2187d059cc2a55fe29e0e503b566e1e0f8c8780096e185429350acffd3dd8160405161115c9190611786565b60405180910390a150565b6000600260008373ffffffffffffffffffffffffffffffffffffffff1673ffffffffffffffffffffffffffffffffffffffff16815260200190815260200160002060009054906101000a900460ff169050919050565b6111c5611299565b600073ffffffffffffffffffffffffffffffffffffffff168173ffffffffffffffffffffffffffffffffffffffff16036112375760006040517f1e4fbdf700000000000000000000000000000000000000000000000000000000815260040161122e9190611786565b60405180910390fd5b61124081611320565b50565b6000600160008373ffffffffffffffffffffffffffffffffffffffff1673ffffffffffffffffffffffffffffffffffffffff16815260200190815260200160002060009054906101000a900460ff169050919050565b6112a16113e4565b73ffffffffffffffffffffffffffffffffffffffff166112bf61099a565b73ffffffffffffffffffffffffffffffffffffffff161461131e576112e26113e4565b6040517f118cdaa70000000000000000000000000000000000000000000000000000000081526004016113159190611786565b60405180910390fd5b565b60008060009054906101000a900473ffffffffffffffffffffffffffffffffffffffff169050816000806101000a81548173ffffffffffffffffffffffffffffffffffffffff021916908373ffffffffffffffffffffffffffffffffffffffff1602179055508173ffffffffffffffffffffffffffffffffffffffff168173ffffffffffffffffffffffffffffffffffffffff167f8be0079c531659141344cd1fd0a4f28419497f9722a3daafe3b4186f6b6457e060405160405180910390a35050565b600033905090565b828054828255906000526020600020908101928215611428579160200282015b8281111561142757825182559160200191906001019061140c565b5b5090506114359190611476565b5090565b6040518060600160405280600073ffffffffffffffffffffffffffffffffffffffff168152602001611469611493565b8152602001600081525090565b5b8082111561148f576000816000905550600101611477565b5090565b604051806040016040528060608152602001600081525090565b7f4e487b7100000000000000000000000000000000000000000000000000000000600052602160045260246000fd5b600681106114ed576114ec6114ad565b5b50565b60008190506114fe826114dc565b919050565b600061150e826114f0565b9050919050565b61151e81611503565b82525050565b60006020820190506115396000830184611515565b92915050565b6000604051905090565b600080fd5b600080fd5b600080fd5b600080fd5b6000601f19601f8301169050919050565b7f4e487b7100000000000000000000000000000000000000000000000000000000600052604160045260246000fd5b6115a68261155d565b810181811067ffffffffffffffff821117156115c5576115c461156e565b5b80604052505050565b60006115d861153f565b90506115e4828261159d565b919050565b600067ffffffffffffffff8211156116045761160361156e565b5b61160d8261155d565b9050602081019050919050565b82818337600083830152505050565b600061163c611637846115e9565b6115ce565b90508281526020810184848401111561165857611657611558565b5b61166384828561161a565b509392505050565b600082601f8301126116805761167f611553565b5b8135611690848260208601611629565b91505092915050565b6000602082840312156116af576116ae611549565b5b600082013567ffffffffffffffff8111156116cd576116cc61154e565b5b6116d98482850161166b565b91505092915050565b6000819050919050565b6116f5816116e2565b811461170057600080fd5b50565b600081359050611712816116ec565b92915050565b60006020828403121561172e5761172d611549565b5b600061173c84828501611703565b91505092915050565b600073ffffffffffffffffffffffffffffffffffffffff82169050919050565b600061177082611745565b9050919050565b61178081611765565b82525050565b600060208201905061179b6000830184611777565b92915050565b600081519050919050565b600082825260208201905092915050565b6000819050602082019050919050565b6117d681611765565b82525050565b600081519050919050565b600082825260208201905092915050565b60005b838110156118165780820151818401526020810190506117fb565b60008484015250505050565b600061182d826117dc565b61183781856117e7565b93506118478185602086016117f8565b6118508161155d565b840191505092915050565b611864816116e2565b82525050565b600060408301600083015184820360008601526118878282611822565b915050602083015161189c602086018261185b565b508091505092915050565b60006060830160008301516118bf60008601826117cd565b50602083015184820360208601526118d7828261186a565b91505060408301516118ec604086018261185b565b508091505092915050565b600061190383836118a7565b905092915050565b6000602082019050919050565b6000611923826117a1565b61192d81856117ac565b93508360208202850161193f856117bd565b8060005b8581101561197b578484038952815161195c85826118f7565b94506119678361190b565b925060208a01995050600181019050611943565b50829750879550505050505092915050565b600060208201905081810360008301526119a78184611918565b905092915050565b600081519050919050565b600082825260208201905092915050565b6000819050602082019050919050565b60006119e783836117cd565b60208301905092915050565b6000602082019050919050565b6000611a0b826119af565b611a1581856119ba565b9350611a20836119cb565b8060005b83811015611a51578151611a3888826119db565b9750611a43836119f3565b925050600181019050611a24565b5085935050505092915050565b60006020820190508181036000830152611a788184611a00565b905092915050565b611a8981611765565b8114611a9457600080fd5b50565b600081359050611aa681611a80565b92915050565b600060208284031215611ac257611ac1611549565b5b6000611ad084828501611a97565b91505092915050565b611ae2816116e2565b82525050565b6000602082019050611afd6000830184611ad9565b92915050565b60008115159050919050565b611b1881611b03565b82525050565b6000602082019050611b336000830184611b0f565b92915050565b600082825260208201905092915050565b7f43616e6e6f7420706572666f726d20616374696f6e206265636175736520796f60008201527f7520617265206e6f742077686974656c69737465642e00000000000000000000602082015250565b6000611ba6603683611b39565b9150611bb182611b4a565b604082019050919050565b60006020820190508181036000830152611bd581611b99565b9050919050565b7f43616e6e6f742072656769737465722070726f706f73616c207965742e000000600082015250565b6000611c12601d83611b39565b9150611c1d82611bdc565b602082019050919050565b60006020820190508181036000830152611c4181611c05565b9050919050565b7f4e487b7100000000000000000000000000000000000000000000000000000000600052602260045260246000fd5b60006002820490506001821680611c8f57607f821691505b602082108103611ca257611ca1611c48565b5b50919050565b60008190508160005260206000209050919050565b60006020601f8301049050919050565b600082821b905092915050565b600060088302611d0a7fffffffffffffffffffffffffffffffffffffffffffffffffffffffffffffffff82611ccd565b611d148683611ccd565b95508019841693508086168417925050509392505050565b6000819050919050565b6000611d51611d4c611d47846116e2565b611d2c565b6116e2565b9050919050565b6000819050919050565b611d6b83611d36565b611d7f611d7782611d58565b848454611cda565b825550505050565b600090565b611d94611d87565b611d9f818484611d62565b505050565b5b81811015611dc357611db8600082611d8c565b600181019050611da5565b5050565b601f821115611e0857611dd981611ca8565b611de284611cbd565b81016020851015611df1578190505b611e05611dfd85611cbd565b830182611da4565b50505b505050565b600082821c905092915050565b6000611e2b60001984600802611e0d565b1980831691505092915050565b6000611e448383611e1a565b9150826002028217905092915050565b611e5d826117dc565b67ffffffffffffffff811115611e7657611e7561156e565b5b611e808254611c77565b611e8b828285611dc7565b600060209050601f831160018114611ebe5760008415611eac578287015190505b611eb68582611e38565b865550611f1e565b601f198416611ecc86611ca8565b60005b82811015611ef457848901518255600182019150602085019450602081019050611ecf565b86831015611f115784890151611f0d601f891682611e1a565b8355505b6001600288020188555050505b505050505050565b7f4e487b7100000000000000000000000000000000000000000000000000000000600052601160045260246000fd5b6000611f60826116e2565b91507fffffffffffffffffffffffffffffffffffffffffffffffffffffffffffffffff8203611f9257611f91611f26565b5b600182019050919050565b7f43616e6e6f7420726567697374657220766f7465207965742e00000000000000600082015250565b6000611fd3601983611b39565b9150611fde82611f9d565b602082019050919050565b6000602082019050818103600083015261200281611fc6565b9050919050565b7f43616e6e6f7420766f746520666f7220756e646566696e65642070726f706f7360008201527f616c2e0000000000000000000000000000000000000000000000000000000000602082015250565b6000612065602383611b39565b915061207082612009565b604082019050919050565b6000602082019050818103600083015261209481612058565b9050919050565b7f596f7520616c726561647920766f7465642e0000000000000000000000000000600082015250565b60006120d1601283611b39565b91506120dc8261209b565b602082019050919050565b60006020820190508181036000830152612100816120c4565b9050919050565b600060408201905061211c6000830185611777565b6121296020830184611ad9565b9392505050565b7f4e487b7100000000000000000000000000000000000000000000000000000000600052603260045260246000fd5b600061216a826116e2565b9150612175836116e2565b925082820190508082111561218d5761218c611f26565b5b92915050565b7f4e487b7100000000000000000000000000000000000000000000000000000000600052601260045260246000fd5b60006121cd826116e2565b91506121d8836116e2565b9250826121e8576121e7612193565b5b828206905092915050565b60006040820190506122086000830185611515565b6122156020830184611515565b9392505050565b7f55736572206861736e277420766f746564207965742e00000000000000000000600082015250565b6000612252601683611b39565b915061225d8261221c565b602082019050919050565b6000602082019050818103600083015261228181612245565b9050919050565b7f43616e6e6f7420726567697374657220766f74657273207965742e0000000000600082015250565b60006122be601b83611b39565b91506122c982612288565b602082019050919050565b600060208201905081810360008301526122ed816122b1565b905091905056fea2646970667358221220c368a3f045c253f95a4a502547359f056348c6b39b60e8cb6dfde4d5b110a59964736f6c63430008160033",
  "linkReferences": {},
  "deployedLinkReferences": {}
}