{
  "_format": "hh-sol-artifact-1",
  "contractName": "Voting",
  "sourceName": "contracts/Voting.sol",
  "abi": [
    {
      "inputs": [],
      "stateMutability": "nonpayable",
      "type": "constructor"
    },
    {
      "inputs": [
        {
          "internalType": "address",
          "name": "owner",
          "type": "address"
        }
      ],
      "name": "OwnableInvalidOwner",
      "type": "error"
    },
    {
      "inputs": [
        {
          "internalType": "address",
          "name": "account",
          "type": "address"
        }
      ],
      "name": "OwnableUnauthorizedAccount",
      "type": "error"
    },
    {
      "anonymous": false,
      "inputs": [
        {
          "indexed": true,
          "internalType": "address",
          "name": "previousOwner",
          "type": "address"
        },
        {
          "indexed": true,
          "internalType": "address",
          "name": "newOwner",
          "type": "address"
        }
      ],
      "name": "OwnershipTransferred",
      "type": "event"
    },
    {
      "anonymous": false,
      "inputs": [
        {
          "indexed": false,
          "internalType": "uint256",
          "name": "proposalId",
          "type": "uint256"
        }
      ],
      "name": "ProposalRegistered",
      "type": "event"
    },
    {
      "anonymous": false,
      "inputs": [
        {
          "indexed": false,
          "internalType": "address",
          "name": "voter",
          "type": "address"
        },
        {
          "indexed": false,
          "internalType": "uint256",
          "name": "proposalId",
          "type": "uint256"
        }
      ],
      "name": "Voted",
      "type": "event"
    },
    {
      "anonymous": false,
      "inputs": [
        {
          "indexed": false,
          "internalType": "address",
          "name": "voterAddress",
          "type": "address"
        }
      ],
      "name": "VoterRegistered",
      "type": "event"
    },
    {
      "anonymous": false,
      "inputs": [
        {
          "indexed": false,
          "internalType": "enum Voting.WorkflowStatus",
          "name": "previousStatus",
          "type": "uint8"
        },
        {
          "indexed": false,
          "internalType": "enum Voting.WorkflowStatus",
          "name": "newStatus",
          "type": "uint8"
        }
      ],
      "name": "WorkflowStatusChange",
      "type": "event"
    },
    {
      "stateMutability": "payable",
      "type": "fallback"
    },
    {
      "inputs": [],
      "name": "askAccess",
      "outputs": [],
      "stateMutability": "nonpayable",
      "type": "function"
    },
    {
      "inputs": [],
      "name": "getAllProposals",
      "outputs": [
        {
          "components": [
            {
              "internalType": "address",
              "name": "owner",
              "type": "address"
            },
            {
              "components": [
                {
                  "internalType": "string",
                  "name": "description",
                  "type": "string"
                },
                {
                  "internalType": "uint256",
                  "name": "voteCount",
                  "type": "uint256"
                }
              ],
              "internalType": "struct Voting.Proposal",
              "name": "proposal",
              "type": "tuple"
            },
            {
              "internalType": "uint256",
              "name": "id",
              "type": "uint256"
            }
          ],
          "internalType": "struct Voting.Proposition[]",
          "name": "",
          "type": "tuple[]"
        }
      ],
      "stateMutability": "view",
      "type": "function"
    },
    {
      "inputs": [],
      "name": "getCurrentStep",
      "outputs": [
        {
          "internalType": "enum Voting.WorkflowStatus",
          "name": "",
          "type": "uint8"
        }
      ],
      "stateMutability": "view",
      "type": "function"
    },
    {
      "inputs": [],
      "name": "getRequesters",
      "outputs": [
        {
          "internalType": "address[]",
          "name": "",
          "type": "address[]"
        }
      ],
      "stateMutability": "view",
      "type": "function"
    },
    {
      "inputs": [
        {
          "internalType": "address",
          "name": "_address",
          "type": "address"
        }
      ],
      "name": "getUserHasVoted",
      "outputs": [
        {
          "internalType": "bool",
          "name": "",
          "type": "bool"
        }
      ],
      "stateMutability": "view",
      "type": "function"
    },
    {
      "inputs": [
        {
          "internalType": "address",
          "name": "_address",
          "type": "address"
        }
      ],
      "name": "getUserVote",
      "outputs": [
        {
          "internalType": "uint256",
          "name": "",
          "type": "uint256"
        }
      ],
      "stateMutability": "view",
      "type": "function"
    },
    {
      "inputs": [],
      "name": "getWhitelist",
      "outputs": [
        {
          "components": [
            {
              "internalType": "address",
              "name": "owner",
              "type": "address"
            },
            {
              "internalType": "bool",
              "name": "wL",
              "type": "bool"
            }
          ],
          "internalType": "struct Voting.addWhiteList[]",
          "name": "",
          "type": "tuple[]"
        }
      ],
      "stateMutability": "view",
      "type": "function"
    },
    {
      "inputs": [],
      "name": "getWinningProposal",
      "outputs": [
        {
          "components": [
            {
              "internalType": "address",
              "name": "owner",
              "type": "address"
            },
            {
              "components": [
                {
                  "internalType": "string",
                  "name": "description",
                  "type": "string"
                },
                {
                  "internalType": "uint256",
                  "name": "voteCount",
                  "type": "uint256"
                }
              ],
              "internalType": "struct Voting.Proposal",
              "name": "proposal",
              "type": "tuple"
            },
            {
              "internalType": "uint256",
              "name": "id",
              "type": "uint256"
            }
          ],
          "internalType": "struct Voting.Proposition[]",
          "name": "",
          "type": "tuple[]"
        }
      ],
      "stateMutability": "view",
      "type": "function"
    },
    {
      "inputs": [
        {
          "internalType": "address",
          "name": "_address",
          "type": "address"
        }
      ],
      "name": "isUserWhitelisted",
      "outputs": [
        {
          "internalType": "bool",
          "name": "",
          "type": "bool"
        }
      ],
      "stateMutability": "view",
      "type": "function"
    },
    {
      "inputs": [],
      "name": "nextStep",
      "outputs": [],
      "stateMutability": "nonpayable",
      "type": "function"
    },
    {
      "inputs": [],
      "name": "owner",
      "outputs": [
        {
          "internalType": "address",
          "name": "",
          "type": "address"
        }
      ],
      "stateMutability": "view",
      "type": "function"
    },
    {
      "inputs": [
        {
          "internalType": "string",
          "name": "_description",
          "type": "string"
        }
      ],
      "name": "registerProposal",
      "outputs": [],
      "stateMutability": "nonpayable",
      "type": "function"
    },
    {
      "inputs": [
        {
          "internalType": "uint256",
          "name": "_proposalId",
          "type": "uint256"
        }
      ],
      "name": "registerVote",
      "outputs": [],
      "stateMutability": "nonpayable",
      "type": "function"
    },
    {
      "inputs": [
        {
          "internalType": "address",
          "name": "_address",
          "type": "address"
        }
      ],
      "name": "registerVoter",
      "outputs": [],
      "stateMutability": "nonpayable",
      "type": "function"
    },
    {
      "inputs": [],
      "name": "renounceOwnership",
      "outputs": [],
      "stateMutability": "nonpayable",
      "type": "function"
    },
    {
      "inputs": [
        {
          "internalType": "address",
          "name": "newOwner",
          "type": "address"
        }
      ],
      "name": "transferOwnership",
      "outputs": [],
      "stateMutability": "nonpayable",
      "type": "function"
    },
    {
      "stateMutability": "payable",
      "type": "receive"
    }
  ],
  "bytecode": "0x60806040526000600a60006101000a81548160ff021916908360058111156200002d576200002c620001e9565b5b02179055503480156200003f57600080fd5b5033600073ffffffffffffffffffffffffffffffffffffffff168173ffffffffffffffffffffffffffffffffffffffff1603620000b65760006040517f1e4fbdf7000000000000000000000000000000000000000000000000000000008152600401620000ad91906200025d565b60405180910390fd5b620000c7816200012560201b60201c565b5060018060003373ffffffffffffffffffffffffffffffffffffffff1673ffffffffffffffffffffffffffffffffffffffff16815260200190815260200160002060006101000a81548160ff0219169083151502179055506200027a565b60008060009054906101000a900473ffffffffffffffffffffffffffffffffffffffff169050816000806101000a81548173ffffffffffffffffffffffffffffffffffffffff021916908373ffffffffffffffffffffffffffffffffffffffff1602179055508173ffffffffffffffffffffffffffffffffffffffff168173ffffffffffffffffffffffffffffffffffffffff167f8be0079c531659141344cd1fd0a4f28419497f9722a3daafe3b4186f6b6457e060405160405180910390a35050565b7f4e487b7100000000000000000000000000000000000000000000000000000000600052602160045260246000fd5b600073ffffffffffffffffffffffffffffffffffffffff82169050919050565b6000620002458262000218565b9050919050565b620002578162000238565b82525050565b60006020820190506200027460008301846200024c565b92915050565b6125be806200028a6000396000f3fe6080604052600436106100f75760003560e01c8063c90007261161008a578063d4923d4e11610059578063d4923d4e146102c2578063f2c03d89146102ff578063f2fde38b1461033c578063fb237eb214610365576100fe565b8063c90007261461022a578063cb0830a314610241578063cceb68f51461026c578063d01f63f514610297576100fe565b8063464d4a92116100c6578063464d4a9214610194578063715018a6146101bd5780638da5cb5b146101d4578063a5134620146101ff576100fe565b8063181ceecb146101005780631d3824ea146101175780632f95355b1461014257806338db6dd31461016b576100fe565b366100fe57005b005b34801561010c57600080fd5b506101156103a2565b005b34801561012357600080fd5b5061012c610456565b60405161013991906116a9565b60405180910390f35b34801561014e57600080fd5b506101696004803603810190610164919061181e565b61046d565b005b34801561017757600080fd5b50610192600480360381019061018d91906118c5565b61066c565b005b3480156101a057600080fd5b506101bb60048036038101906101b69190611928565b61077b565b005b3480156101c957600080fd5b506101d2610acb565b005b3480156101e057600080fd5b506101e9610adf565b6040516101f69190611964565b60405180910390f35b34801561020b57600080fd5b50610214610b08565b6040516102219190611b6b565b60405180910390f35b34801561023657600080fd5b5061023f610ceb565b005b34801561024d57600080fd5b50610256610dfd565b6040516102639190611c3c565b60405180910390f35b34801561027857600080fd5b50610281610e8b565b60405161028e9190611b6b565b60405180910390f35b3480156102a357600080fd5b506102ac611048565b6040516102b99190611d57565b60405180910390f35b3480156102ce57600080fd5b506102e960048036038101906102e491906118c5565b6111e5565b6040516102f69190611d88565b60405180910390f35b34801561030b57600080fd5b50610326600480360381019061032191906118c5565b6112ba565b6040516103339190611db2565b60405180910390f35b34801561034857600080fd5b50610363600480360381019061035e91906118c5565b611310565b005b34801561037157600080fd5b5061038c600480360381019061038791906118c5565b611396565b6040516103999190611db2565b60405180910390f35b6000600b80549050905080600660003373ffffffffffffffffffffffffffffffffffffffff1673ffffffffffffffffffffffffffffffffffffffff16815260200190815260200160002081905550600b339080600181540180825580915050600190039060005260206000200160009091909190916101000a81548173ffffffffffffffffffffffffffffffffffffffff021916908373ffffffffffffffffffffffffffffffffffffffff16021790555050565b6000600a60009054906101000a900460ff16905090565b60011515600160003373ffffffffffffffffffffffffffffffffffffffff1673ffffffffffffffffffffffffffffffffffffffff16815260200190815260200160002060009054906101000a900460ff16151514610500576040517f08c379a00000000000000000000000000000000000000000000000000000000081526004016104f790611e50565b60405180910390fd5b6001600581111561051457610513611632565b5b600a60009054906101000a900460ff16600581111561053657610535611632565b5b14610576576040517f08c379a000000000000000000000000000000000000000000000000000000000815260040161056d90611ebc565b60405180910390fd5b3360046000600754815260200190815260200160002060006101000a81548173ffffffffffffffffffffffffffffffffffffffff021916908373ffffffffffffffffffffffffffffffffffffffff16021790555060405180604001604052808281526020016000815250600560006007548152602001908152602001600020600082015181600001908161060a91906120e8565b50602082015181600101559050506007600081548092919061062b906121e9565b91905055507f92e393e9b54e2f801d3ea4beb0c5e71a21cc34a5d34b77d0fb8a3aa1650dc18f6007546040516106619190611d88565b60405180910390a150565b6106746113ec565b6000600581111561068857610687611632565b5b600a60009054906101000a900460ff1660058111156106aa576106a9611632565b5b146106ea576040517f08c379a00000000000000000000000000000000000000000000000000000000081526004016106e19061227d565b60405180910390fd5b60018060008373ffffffffffffffffffffffffffffffffffffffff1673ffffffffffffffffffffffffffffffffffffffff16815260200190815260200160002060006101000a81548160ff0219169083151502179055507fb6be2187d059cc2a55fe29e0e503b566e1e0f8c8780096e185429350acffd3dd816040516107709190611964565b60405180910390a150565b60011515600160003373ffffffffffffffffffffffffffffffffffffffff1673ffffffffffffffffffffffffffffffffffffffff16815260200190815260200160002060009054906101000a900460ff1615151461080e576040517f08c379a000000000000000000000000000000000000000000000000000000000815260040161080590611e50565b60405180910390fd5b6003600581111561082257610821611632565b5b600a60009054906101000a900460ff16600581111561084457610843611632565b5b14610884576040517f08c379a000000000000000000000000000000000000000000000000000000000815260040161087b906122e9565b60405180910390fd5b60075481106108c8576040517f08c379a00000000000000000000000000000000000000000000000000000000081526004016108bf9061237b565b60405180910390fd5b60011515600260003373ffffffffffffffffffffffffffffffffffffffff1673ffffffffffffffffffffffffffffffffffffffff16815260200190815260200160002060009054906101000a900460ff1615150361095b576040517f08c379a0000000000000000000000000000000000000000000000000000000008152600401610952906123e7565b60405180910390fd5b60006005600083815260200190815260200160002060010160008154610980906121e9565b91905081905590506008548111156109be578060088190555060405180602001604052808381525060099060016109b892919061153f565b506109f2565b60085481036109f15760098290806001815401808255809150506001900390600052602060002001600090919091909150555b5b6001600260003373ffffffffffffffffffffffffffffffffffffffff1673ffffffffffffffffffffffffffffffffffffffff16815260200190815260200160002060006101000a81548160ff02191690831515021790555081600360003373ffffffffffffffffffffffffffffffffffffffff1673ffffffffffffffffffffffffffffffffffffffff168152602001908152602001600020819055507f4d99b957a2bc29a30ebd96a7be8e68fe50a3c701db28a91436490b7d53870ca43383604051610abf929190612407565b60405180910390a15050565b610ad36113ec565b610add6000611473565b565b60008060009054906101000a900473ffffffffffffffffffffffffffffffffffffffff16905090565b6060600060098054905067ffffffffffffffff811115610b2b57610b2a6116f3565b5b604051908082528060200260200182016040528015610b6457816020015b610b5161158c565b815260200190600190039081610b495790505b50905060005b600980549050811015610ce357600060098281548110610b8d57610b8c612430565b5b9060005260206000200154905060405180606001604052806004600084815260200190815260200160002060009054906101000a900473ffffffffffffffffffffffffffffffffffffffff1673ffffffffffffffffffffffffffffffffffffffff16815260200160056000848152602001908152602001600020604051806040016040529081600082018054610c2290611f0b565b80601f0160208091040260200160405190810160405280929190818152602001828054610c4e90611f0b565b8015610c9b5780601f10610c7057610100808354040283529160200191610c9b565b820191906000526020600020905b815481529060010190602001808311610c7e57829003601f168201915b50505050508152602001600182015481525050815260200182815250838381518110610cca57610cc9612430565b5b6020026020010181905250508080600101915050610b6a565b508091505090565b610cf36113ec565b7f0a97a4ee45751e2abf3e4fc8946939630b11b371ea8ae39ccdc3056e98f5cc3f600a60009054906101000a900460ff1660066001600a60009054906101000a900460ff166005811115610d4a57610d49611632565b5b610d54919061245f565b610d5e91906124c2565b6005811115610d7057610d6f611632565b5b604051610d7e9291906124f3565b60405180910390a160066001600a60009054906101000a900460ff166005811115610dac57610dab611632565b5b610db6919061245f565b610dc091906124c2565b6005811115610dd257610dd1611632565b5b600a60006101000a81548160ff02191690836005811115610df657610df5611632565b5b0217905550565b6060600b805480602002602001604051908101604052809291908181526020018280548015610e8157602002820191906000526020600020905b8160009054906101000a900473ffffffffffffffffffffffffffffffffffffffff1673ffffffffffffffffffffffffffffffffffffffff1681526020019060010190808311610e37575b5050505050905090565b60606000600754905060008167ffffffffffffffff811115610eb057610eaf6116f3565b5b604051908082528060200260200182016040528015610ee957816020015b610ed661158c565b815260200190600190039081610ece5790505b50905060005b8281101561103f5760405180606001604052806004600084815260200190815260200160002060009054906101000a900473ffffffffffffffffffffffffffffffffffffffff1673ffffffffffffffffffffffffffffffffffffffff16815260200160056000848152602001908152602001600020604051806040016040529081600082018054610f7f90611f0b565b80601f0160208091040260200160405190810160405280929190818152602001828054610fab90611f0b565b8015610ff85780601f10610fcd57610100808354040283529160200191610ff8565b820191906000526020600020905b815481529060010190602001808311610fdb57829003601f168201915b5050505050815260200160018201548152505081526020018281525082828151811061102757611026612430565b5b60200260200101819052508080600101915050610eef565b50809250505090565b60606000600b8054905067ffffffffffffffff81111561106b5761106a6116f3565b5b6040519080825280602002602001820160405280156110a457816020015b6110916115c9565b8152602001906001900390816110895790505b50905060005b600b805490508110156111dd57600060016000600b84815481106110d1576110d0612430565b5b9060005260206000200160009054906101000a900473ffffffffffffffffffffffffffffffffffffffff1673ffffffffffffffffffffffffffffffffffffffff1673ffffffffffffffffffffffffffffffffffffffff16815260200190815260200160002060009054906101000a900460ff1690506040518060400160405280600b848154811061116557611164612430565b5b9060005260206000200160009054906101000a900473ffffffffffffffffffffffffffffffffffffffff1673ffffffffffffffffffffffffffffffffffffffff1681526020018215158152508383815181106111c4576111c3612430565b5b60200260200101819052505080806001019150506110aa565b508091505090565b6000600260008373ffffffffffffffffffffffffffffffffffffffff1673ffffffffffffffffffffffffffffffffffffffff16815260200190815260200160002060009054906101000a900460ff16611273576040517f08c379a000000000000000000000000000000000000000000000000000000000815260040161126a90612568565b60405180910390fd5b600360008373ffffffffffffffffffffffffffffffffffffffff1673ffffffffffffffffffffffffffffffffffffffff168152602001908152602001600020549050919050565b6000600260008373ffffffffffffffffffffffffffffffffffffffff1673ffffffffffffffffffffffffffffffffffffffff16815260200190815260200160002060009054906101000a900460ff169050919050565b6113186113ec565b600073ffffffffffffffffffffffffffffffffffffffff168173ffffffffffffffffffffffffffffffffffffffff160361138a5760006040517f1e4fbdf70000000000000000000000000000000000000000000000000000000081526004016113819190611964565b60405180910390fd5b61139381611473565b50565b6000600160008373ffffffffffffffffffffffffffffffffffffffff1673ffffffffffffffffffffffffffffffffffffffff16815260200190815260200160002060009054906101000a900460ff169050919050565b6113f4611537565b73ffffffffffffffffffffffffffffffffffffffff16611412610adf565b73ffffffffffffffffffffffffffffffffffffffff161461147157611435611537565b6040517f118cdaa70000000000000000000000000000000000000000000000000000000081526004016114689190611964565b60405180910390fd5b565b60008060009054906101000a900473ffffffffffffffffffffffffffffffffffffffff169050816000806101000a81548173ffffffffffffffffffffffffffffffffffffffff021916908373ffffffffffffffffffffffffffffffffffffffff1602179055508173ffffffffffffffffffffffffffffffffffffffff168173ffffffffffffffffffffffffffffffffffffffff167f8be0079c531659141344cd1fd0a4f28419497f9722a3daafe3b4186f6b6457e060405160405180910390a35050565b600033905090565b82805482825590600052602060002090810192821561157b579160200282015b8281111561157a57825182559160200191906001019061155f565b5b50905061158891906115fb565b5090565b6040518060600160405280600073ffffffffffffffffffffffffffffffffffffffff1681526020016115bc611618565b8152602001600081525090565b6040518060400160405280600073ffffffffffffffffffffffffffffffffffffffff1681526020016000151581525090565b5b808211156116145760008160009055506001016115fc565b5090565b604051806040016040528060608152602001600081525090565b7f4e487b7100000000000000000000000000000000000000000000000000000000600052602160045260246000fd5b6006811061167257611671611632565b5b50565b600081905061168382611661565b919050565b600061169382611675565b9050919050565b6116a381611688565b82525050565b60006020820190506116be600083018461169a565b92915050565b6000604051905090565b600080fd5b600080fd5b600080fd5b600080fd5b6000601f19601f8301169050919050565b7f4e487b7100000000000000000000000000000000000000000000000000000000600052604160045260246000fd5b61172b826116e2565b810181811067ffffffffffffffff8211171561174a576117496116f3565b5b80604052505050565b600061175d6116c4565b90506117698282611722565b919050565b600067ffffffffffffffff821115611789576117886116f3565b5b611792826116e2565b9050602081019050919050565b82818337600083830152505050565b60006117c16117bc8461176e565b611753565b9050828152602081018484840111156117dd576117dc6116dd565b5b6117e884828561179f565b509392505050565b600082601f830112611805576118046116d8565b5b81356118158482602086016117ae565b91505092915050565b600060208284031215611834576118336116ce565b5b600082013567ffffffffffffffff811115611852576118516116d3565b5b61185e848285016117f0565b91505092915050565b600073ffffffffffffffffffffffffffffffffffffffff82169050919050565b600061189282611867565b9050919050565b6118a281611887565b81146118ad57600080fd5b50565b6000813590506118bf81611899565b92915050565b6000602082840312156118db576118da6116ce565b5b60006118e9848285016118b0565b91505092915050565b6000819050919050565b611905816118f2565b811461191057600080fd5b50565b600081359050611922816118fc565b92915050565b60006020828403121561193e5761193d6116ce565b5b600061194c84828501611913565b91505092915050565b61195e81611887565b82525050565b60006020820190506119796000830184611955565b92915050565b600081519050919050565b600082825260208201905092915050565b6000819050602082019050919050565b6119b481611887565b82525050565b600081519050919050565b600082825260208201905092915050565b60005b838110156119f45780820151818401526020810190506119d9565b60008484015250505050565b6000611a0b826119ba565b611a1581856119c5565b9350611a258185602086016119d6565b611a2e816116e2565b840191505092915050565b611a42816118f2565b82525050565b60006040830160008301518482036000860152611a658282611a00565b9150506020830151611a7a6020860182611a39565b508091505092915050565b6000606083016000830151611a9d60008601826119ab565b5060208301518482036020860152611ab58282611a48565b9150506040830151611aca6040860182611a39565b508091505092915050565b6000611ae18383611a85565b905092915050565b6000602082019050919050565b6000611b018261197f565b611b0b818561198a565b935083602082028501611b1d8561199b565b8060005b85811015611b595784840389528151611b3a8582611ad5565b9450611b4583611ae9565b925060208a01995050600181019050611b21565b50829750879550505050505092915050565b60006020820190508181036000830152611b858184611af6565b905092915050565b600081519050919050565b600082825260208201905092915050565b6000819050602082019050919050565b6000611bc583836119ab565b60208301905092915050565b6000602082019050919050565b6000611be982611b8d565b611bf38185611b98565b9350611bfe83611ba9565b8060005b83811015611c2f578151611c168882611bb9565b9750611c2183611bd1565b925050600181019050611c02565b5085935050505092915050565b60006020820190508181036000830152611c568184611bde565b905092915050565b600081519050919050565b600082825260208201905092915050565b6000819050602082019050919050565b60008115159050919050565b611c9f81611c8a565b82525050565b604082016000820151611cbb60008501826119ab565b506020820151611cce6020850182611c96565b50505050565b6000611ce08383611ca5565b60408301905092915050565b6000602082019050919050565b6000611d0482611c5e565b611d0e8185611c69565b9350611d1983611c7a565b8060005b83811015611d4a578151611d318882611cd4565b9750611d3c83611cec565b925050600181019050611d1d565b5085935050505092915050565b60006020820190508181036000830152611d718184611cf9565b905092915050565b611d82816118f2565b82525050565b6000602082019050611d9d6000830184611d79565b92915050565b611dac81611c8a565b82525050565b6000602082019050611dc76000830184611da3565b92915050565b600082825260208201905092915050565b7f43616e6e6f7420706572666f726d20616374696f6e206265636175736520796f60008201527f7520617265206e6f742077686974656c69737465642e00000000000000000000602082015250565b6000611e3a603683611dcd565b9150611e4582611dde565b604082019050919050565b60006020820190508181036000830152611e6981611e2d565b9050919050565b7f43616e6e6f742072656769737465722070726f706f73616c207965742e000000600082015250565b6000611ea6601d83611dcd565b9150611eb182611e70565b602082019050919050565b60006020820190508181036000830152611ed581611e99565b9050919050565b7f4e487b7100000000000000000000000000000000000000000000000000000000600052602260045260246000fd5b60006002820490506001821680611f2357607f821691505b602082108103611f3657611f35611edc565b5b50919050565b60008190508160005260206000209050919050565b60006020601f8301049050919050565b600082821b905092915050565b600060088302611f9e7fffffffffffffffffffffffffffffffffffffffffffffffffffffffffffffffff82611f61565b611fa88683611f61565b95508019841693508086168417925050509392505050565b6000819050919050565b6000611fe5611fe0611fdb846118f2565b611fc0565b6118f2565b9050919050565b6000819050919050565b611fff83611fca565b61201361200b82611fec565b848454611f6e565b825550505050565b600090565b61202861201b565b612033818484611ff6565b505050565b5b818110156120575761204c600082612020565b600181019050612039565b5050565b601f82111561209c5761206d81611f3c565b61207684611f51565b81016020851015612085578190505b61209961209185611f51565b830182612038565b50505b505050565b600082821c905092915050565b60006120bf600019846008026120a1565b1980831691505092915050565b60006120d883836120ae565b9150826002028217905092915050565b6120f1826119ba565b67ffffffffffffffff81111561210a576121096116f3565b5b6121148254611f0b565b61211f82828561205b565b600060209050601f8311600181146121525760008415612140578287015190505b61214a85826120cc565b8655506121b2565b601f19841661216086611f3c565b60005b8281101561218857848901518255600182019150602085019450602081019050612163565b868310156121a557848901516121a1601f8916826120ae565b8355505b6001600288020188555050505b505050505050565b7f4e487b7100000000000000000000000000000000000000000000000000000000600052601160045260246000fd5b60006121f4826118f2565b91507fffffffffffffffffffffffffffffffffffffffffffffffffffffffffffffffff8203612226576122256121ba565b5b600182019050919050565b7f43616e6e6f7420726567697374657220766f74657273207965742e0000000000600082015250565b6000612267601b83611dcd565b915061227282612231565b602082019050919050565b600060208201905081810360008301526122968161225a565b9050919050565b7f43616e6e6f7420726567697374657220766f7465207965742e00000000000000600082015250565b60006122d3601983611dcd565b91506122de8261229d565b602082019050919050565b60006020820190508181036000830152612302816122c6565b9050919050565b7f43616e6e6f7420766f746520666f7220756e646566696e65642070726f706f7360008201527f616c2e0000000000000000000000000000000000000000000000000000000000602082015250565b6000612365602383611dcd565b915061237082612309565b604082019050919050565b6000602082019050818103600083015261239481612358565b9050919050565b7f596f7520616c726561647920766f7465642e0000000000000000000000000000600082015250565b60006123d1601283611dcd565b91506123dc8261239b565b602082019050919050565b60006020820190508181036000830152612400816123c4565b9050919050565b600060408201905061241c6000830185611955565b6124296020830184611d79565b9392505050565b7f4e487b7100000000000000000000000000000000000000000000000000000000600052603260045260246000fd5b600061246a826118f2565b9150612475836118f2565b925082820190508082111561248d5761248c6121ba565b5b92915050565b7f4e487b7100000000000000000000000000000000000000000000000000000000600052601260045260246000fd5b60006124cd826118f2565b91506124d8836118f2565b9250826124e8576124e7612493565b5b828206905092915050565b6000604082019050612508600083018561169a565b612515602083018461169a565b9392505050565b7f55736572206861736e277420766f746564207965742e00000000000000000000600082015250565b6000612552601683611dcd565b915061255d8261251c565b602082019050919050565b6000602082019050818103600083015261258181612545565b905091905056fea26469706673582212206d0298f2710d402cc77052650a8343a4c58d002b59d8a9b2ae04fb4babed1a6564736f6c63430008160033",
  "linkReferences": {},
  "deployedLinkReferences": {}
}