{
  "_format": "hh-sol-artifact-1",
  "contractName": "Voting",
  "sourceName": "contracts/Voting.sol",
  "abi": [
    {
      "inputs": [],
      "stateMutability": "nonpayable",
      "type": "constructor"
    },
    {
      "inputs": [
        {
          "internalType": "address",
          "name": "owner",
          "type": "address"
        }
      ],
      "name": "OwnableInvalidOwner",
      "type": "error"
    },
    {
      "inputs": [
        {
          "internalType": "address",
          "name": "account",
          "type": "address"
        }
      ],
      "name": "OwnableUnauthorizedAccount",
      "type": "error"
    },
    {
      "anonymous": false,
      "inputs": [
        {
          "indexed": true,
          "internalType": "address",
          "name": "previousOwner",
          "type": "address"
        },
        {
          "indexed": true,
          "internalType": "address",
          "name": "newOwner",
          "type": "address"
        }
      ],
      "name": "OwnershipTransferred",
      "type": "event"
    },
    {
      "anonymous": false,
      "inputs": [
        {
          "indexed": false,
          "internalType": "uint256",
          "name": "proposalId",
          "type": "uint256"
        }
      ],
      "name": "ProposalRegistered",
      "type": "event"
    },
    {
      "anonymous": false,
      "inputs": [
        {
          "indexed": false,
          "internalType": "address",
          "name": "voter",
          "type": "address"
        },
        {
          "indexed": false,
          "internalType": "uint256",
          "name": "proposalId",
          "type": "uint256"
        }
      ],
      "name": "Voted",
      "type": "event"
    },
    {
      "anonymous": false,
      "inputs": [
        {
          "indexed": false,
          "internalType": "address",
          "name": "voterAddress",
          "type": "address"
        }
      ],
      "name": "VoterRegistered",
      "type": "event"
    },
    {
      "anonymous": false,
      "inputs": [
        {
          "indexed": false,
          "internalType": "enum Voting.WorkflowStatus",
          "name": "previousStatus",
          "type": "uint8"
        },
        {
          "indexed": false,
          "internalType": "enum Voting.WorkflowStatus",
          "name": "newStatus",
          "type": "uint8"
        }
      ],
      "name": "WorkflowStatusChange",
      "type": "event"
    },
    {
      "stateMutability": "payable",
      "type": "fallback"
    },
    {
      "inputs": [],
      "name": "getCurrentStep",
      "outputs": [
        {
          "internalType": "enum Voting.WorkflowStatus",
          "name": "",
          "type": "uint8"
        }
      ],
      "stateMutability": "view",
      "type": "function"
    },
    {
      "inputs": [],
      "name": "getWinningProposal",
      "outputs": [
        {
          "components": [
            {
              "internalType": "string",
              "name": "description",
              "type": "string"
            },
            {
              "internalType": "uint256",
              "name": "voteCount",
              "type": "uint256"
            }
          ],
          "internalType": "struct Voting.Proposal[]",
          "name": "",
          "type": "tuple[]"
        }
      ],
      "stateMutability": "view",
      "type": "function"
    },
    {
      "inputs": [],
      "name": "nextStep",
      "outputs": [],
      "stateMutability": "nonpayable",
      "type": "function"
    },
    {
      "inputs": [],
      "name": "owner",
      "outputs": [
        {
          "internalType": "address",
          "name": "",
          "type": "address"
        }
      ],
      "stateMutability": "view",
      "type": "function"
    },
    {
      "inputs": [
        {
          "internalType": "string",
          "name": "_description",
          "type": "string"
        }
      ],
      "name": "registerProposal",
      "outputs": [],
      "stateMutability": "nonpayable",
      "type": "function"
    },
    {
      "inputs": [
        {
          "internalType": "uint256",
          "name": "_proposalId",
          "type": "uint256"
        }
      ],
      "name": "registerVote",
      "outputs": [],
      "stateMutability": "nonpayable",
      "type": "function"
    },
    {
      "inputs": [
        {
          "internalType": "address",
          "name": "_address",
          "type": "address"
        }
      ],
      "name": "registerVoters",
      "outputs": [],
      "stateMutability": "nonpayable",
      "type": "function"
    },
    {
      "inputs": [],
      "name": "renounceOwnership",
      "outputs": [],
      "stateMutability": "nonpayable",
      "type": "function"
    },
    {
      "inputs": [
        {
          "internalType": "address",
          "name": "newOwner",
          "type": "address"
        }
      ],
      "name": "transferOwnership",
      "outputs": [],
      "stateMutability": "nonpayable",
      "type": "function"
    },
    {
      "stateMutability": "payable",
      "type": "receive"
    }
  ],
  "bytecode": "0x60806040526000600860006101000a81548160ff021916908360058111156200002d576200002c620001e9565b5b02179055503480156200003f57600080fd5b5033600073ffffffffffffffffffffffffffffffffffffffff168173ffffffffffffffffffffffffffffffffffffffff1603620000b65760006040517f1e4fbdf7000000000000000000000000000000000000000000000000000000008152600401620000ad91906200025d565b60405180910390fd5b620000c7816200012560201b60201c565b5060018060003373ffffffffffffffffffffffffffffffffffffffff1673ffffffffffffffffffffffffffffffffffffffff16815260200190815260200160002060006101000a81548160ff0219169083151502179055506200027a565b60008060009054906101000a900473ffffffffffffffffffffffffffffffffffffffff169050816000806101000a81548173ffffffffffffffffffffffffffffffffffffffff021916908373ffffffffffffffffffffffffffffffffffffffff1602179055508173ffffffffffffffffffffffffffffffffffffffff168173ffffffffffffffffffffffffffffffffffffffff167f8be0079c531659141344cd1fd0a4f28419497f9722a3daafe3b4186f6b6457e060405160405180910390a35050565b7f4e487b7100000000000000000000000000000000000000000000000000000000600052602160045260246000fd5b600073ffffffffffffffffffffffffffffffffffffffff82169050919050565b6000620002458262000218565b9050919050565b620002578162000238565b82525050565b60006020820190506200027460008301846200024c565b92915050565b611a59806200028a6000396000f3fe60806040526004361061008a5760003560e01c80638da5cb5b116100595780638da5cb5b14610127578063a513462014610152578063c90007261461017d578063ed8a160814610194578063f2fde38b146101bd57610091565b80631d3824ea146100935780632f95355b146100be578063464d4a92146100e7578063715018a61461011057610091565b3661009157005b005b34801561009f57600080fd5b506100a86101e6565b6040516100b59190610e19565b60405180910390f35b3480156100ca57600080fd5b506100e560048036038101906100e09190610f8e565b6101fd565b005b3480156100f357600080fd5b5061010e6004803603810190610109919061100d565b6103fc565b005b34801561011c57600080fd5b50610125610709565b005b34801561013357600080fd5b5061013c61071d565b604051610149919061107b565b60405180910390f35b34801561015e57600080fd5b50610167610746565b6040516101749190611223565b60405180910390f35b34801561018957600080fd5b5061019261093c565b005b3480156101a057600080fd5b506101bb60048036038101906101b69190611271565b610a36565b005b3480156101c957600080fd5b506101e460048036038101906101df9190611271565b610b45565b005b6000600860009054906101000a900460ff16905090565b60011515600160003373ffffffffffffffffffffffffffffffffffffffff1673ffffffffffffffffffffffffffffffffffffffff16815260200190815260200160002060009054906101000a900460ff16151514610290576040517f08c379a000000000000000000000000000000000000000000000000000000000815260040161028790611321565b60405180910390fd5b600160058111156102a4576102a3610da2565b5b600860009054906101000a900460ff1660058111156102c6576102c5610da2565b5b14610306576040517f08c379a00000000000000000000000000000000000000000000000000000000081526004016102fd9061138d565b60405180910390fd5b3360036000600554815260200190815260200160002060006101000a81548173ffffffffffffffffffffffffffffffffffffffff021916908373ffffffffffffffffffffffffffffffffffffffff16021790555060405180604001604052808281526020016000815250600460006005548152602001908152602001600020600082015181600001908161039a91906115b9565b5060208201518160010155905050600560008154809291906103bb906116ba565b91905055507f92e393e9b54e2f801d3ea4beb0c5e71a21cc34a5d34b77d0fb8a3aa1650dc18f6005546040516103f19190611711565b60405180910390a150565b60011515600160003373ffffffffffffffffffffffffffffffffffffffff1673ffffffffffffffffffffffffffffffffffffffff16815260200190815260200160002060009054906101000a900460ff1615151461048f576040517f08c379a000000000000000000000000000000000000000000000000000000000815260040161048690611321565b60405180910390fd5b600360058111156104a3576104a2610da2565b5b600860009054906101000a900460ff1660058111156104c5576104c4610da2565b5b14610505576040517f08c379a00000000000000000000000000000000000000000000000000000000081526004016104fc90611778565b60405180910390fd5b6005548110610549576040517f08c379a00000000000000000000000000000000000000000000000000000000081526004016105409061180a565b60405180910390fd5b60011515600260003373ffffffffffffffffffffffffffffffffffffffff1673ffffffffffffffffffffffffffffffffffffffff16815260200190815260200160002060009054906101000a900460ff161515036105dc576040517f08c379a00000000000000000000000000000000000000000000000000000000081526004016105d390611876565b60405180910390fd5b60006004600083815260200190815260200160002060010160008154610601906116ba565b919050819055905060065481111561063f57806006819055506040518060200160405280838152506007906001610639929190610d1e565b50610674565b6006548111156106735760078290806001815401808255809150506001900390600052602060002001600090919091909150555b5b6001600260003373ffffffffffffffffffffffffffffffffffffffff1673ffffffffffffffffffffffffffffffffffffffff16815260200190815260200160002060006101000a81548160ff0219169083151502179055507f4d99b957a2bc29a30ebd96a7be8e68fe50a3c701db28a91436490b7d53870ca433836040516106fd929190611896565b60405180910390a15050565b610711610bcb565b61071b6000610c52565b565b60008060009054906101000a900473ffffffffffffffffffffffffffffffffffffffff16905090565b60606004600581111561075c5761075b610da2565b5b600860009054906101000a900460ff16600581111561077e5761077d610da2565b5b146107be576040517f08c379a00000000000000000000000000000000000000000000000000000000081526004016107b59061190b565b60405180910390fd5b600060078054905067ffffffffffffffff8111156107df576107de610e63565b5b60405190808252806020026020018201604052801561081857816020015b610805610d6b565b8152602001906001900390816107fd5790505b50905060005b6007805490508110156109345760046000600783815481106108435761084261192b565b5b90600052602060002001548152602001908152602001600020604051806040016040529081600082018054610877906113dc565b80601f01602080910402602001604051908101604052809291908181526020018280546108a3906113dc565b80156108f05780601f106108c5576101008083540402835291602001916108f0565b820191906000526020600020905b8154815290600101906020018083116108d357829003601f168201915b505050505081526020016001820154815250508282815181106109165761091561192b565b5b6020026020010181905250808061092c906116ba565b91505061081e565b508091505090565b610944610bcb565b7f0a97a4ee45751e2abf3e4fc8946939630b11b371ea8ae39ccdc3056e98f5cc3f600860009054906101000a900460ff166001600860009054906101000a900460ff16600581111561099957610998610da2565b5b6109a3919061195a565b60058111156109b5576109b4610da2565b5b6040516109c392919061198e565b60405180910390a16001600860009054906101000a900460ff1660058111156109ef576109ee610da2565b5b6109f9919061195a565b6005811115610a0b57610a0a610da2565b5b600860006101000a81548160ff02191690836005811115610a2f57610a2e610da2565b5b0217905550565b610a3e610bcb565b60006005811115610a5257610a51610da2565b5b600860009054906101000a900460ff166005811115610a7457610a73610da2565b5b14610ab4576040517f08c379a0000000000000000000000000000000000000000000000000000000008152600401610aab90611a03565b60405180910390fd5b60018060008373ffffffffffffffffffffffffffffffffffffffff1673ffffffffffffffffffffffffffffffffffffffff16815260200190815260200160002060006101000a81548160ff0219169083151502179055507fb6be2187d059cc2a55fe29e0e503b566e1e0f8c8780096e185429350acffd3dd81604051610b3a919061107b565b60405180910390a150565b610b4d610bcb565b600073ffffffffffffffffffffffffffffffffffffffff168173ffffffffffffffffffffffffffffffffffffffff1603610bbf5760006040517f1e4fbdf7000000000000000000000000000000000000000000000000000000008152600401610bb6919061107b565b60405180910390fd5b610bc881610c52565b50565b610bd3610d16565b73ffffffffffffffffffffffffffffffffffffffff16610bf161071d565b73ffffffffffffffffffffffffffffffffffffffff1614610c5057610c14610d16565b6040517f118cdaa7000000000000000000000000000000000000000000000000000000008152600401610c47919061107b565b60405180910390fd5b565b60008060009054906101000a900473ffffffffffffffffffffffffffffffffffffffff169050816000806101000a81548173ffffffffffffffffffffffffffffffffffffffff021916908373ffffffffffffffffffffffffffffffffffffffff1602179055508173ffffffffffffffffffffffffffffffffffffffff168173ffffffffffffffffffffffffffffffffffffffff167f8be0079c531659141344cd1fd0a4f28419497f9722a3daafe3b4186f6b6457e060405160405180910390a35050565b600033905090565b828054828255906000526020600020908101928215610d5a579160200282015b82811115610d59578251825591602001919060010190610d3e565b5b509050610d679190610d85565b5090565b604051806040016040528060608152602001600081525090565b5b80821115610d9e576000816000905550600101610d86565b5090565b7f4e487b7100000000000000000000000000000000000000000000000000000000600052602160045260246000fd5b60068110610de257610de1610da2565b5b50565b6000819050610df382610dd1565b919050565b6000610e0382610de5565b9050919050565b610e1381610df8565b82525050565b6000602082019050610e2e6000830184610e0a565b92915050565b6000604051905090565b600080fd5b600080fd5b600080fd5b600080fd5b6000601f19601f8301169050919050565b7f4e487b7100000000000000000000000000000000000000000000000000000000600052604160045260246000fd5b610e9b82610e52565b810181811067ffffffffffffffff82111715610eba57610eb9610e63565b5b80604052505050565b6000610ecd610e34565b9050610ed98282610e92565b919050565b600067ffffffffffffffff821115610ef957610ef8610e63565b5b610f0282610e52565b9050602081019050919050565b82818337600083830152505050565b6000610f31610f2c84610ede565b610ec3565b905082815260208101848484011115610f4d57610f4c610e4d565b5b610f58848285610f0f565b509392505050565b600082601f830112610f7557610f74610e48565b5b8135610f85848260208601610f1e565b91505092915050565b600060208284031215610fa457610fa3610e3e565b5b600082013567ffffffffffffffff811115610fc257610fc1610e43565b5b610fce84828501610f60565b91505092915050565b6000819050919050565b610fea81610fd7565b8114610ff557600080fd5b50565b60008135905061100781610fe1565b92915050565b60006020828403121561102357611022610e3e565b5b600061103184828501610ff8565b91505092915050565b600073ffffffffffffffffffffffffffffffffffffffff82169050919050565b60006110658261103a565b9050919050565b6110758161105a565b82525050565b6000602082019050611090600083018461106c565b92915050565b600081519050919050565b600082825260208201905092915050565b6000819050602082019050919050565b600081519050919050565b600082825260208201905092915050565b60005b838110156110fc5780820151818401526020810190506110e1565b60008484015250505050565b6000611113826110c2565b61111d81856110cd565b935061112d8185602086016110de565b61113681610e52565b840191505092915050565b61114a81610fd7565b82525050565b6000604083016000830151848203600086015261116d8282611108565b91505060208301516111826020860182611141565b508091505092915050565b60006111998383611150565b905092915050565b6000602082019050919050565b60006111b982611096565b6111c381856110a1565b9350836020820285016111d5856110b2565b8060005b8581101561121157848403895281516111f2858261118d565b94506111fd836111a1565b925060208a019950506001810190506111d9565b50829750879550505050505092915050565b6000602082019050818103600083015261123d81846111ae565b905092915050565b61124e8161105a565b811461125957600080fd5b50565b60008135905061126b81611245565b92915050565b60006020828403121561128757611286610e3e565b5b60006112958482850161125c565b91505092915050565b600082825260208201905092915050565b7f43616e6e6f7420706572666f726d20616374696f6e206265636175736520796f60008201527f7520617265206e6f742077686974656c69737465642e00000000000000000000602082015250565b600061130b60368361129e565b9150611316826112af565b604082019050919050565b6000602082019050818103600083015261133a816112fe565b9050919050565b7f43616e6e6f742072656769737465722070726f706f73616c207965742e000000600082015250565b6000611377601d8361129e565b915061138282611341565b602082019050919050565b600060208201905081810360008301526113a68161136a565b9050919050565b7f4e487b7100000000000000000000000000000000000000000000000000000000600052602260045260246000fd5b600060028204905060018216806113f457607f821691505b602082108103611407576114066113ad565b5b50919050565b60008190508160005260206000209050919050565b60006020601f8301049050919050565b600082821b905092915050565b60006008830261146f7fffffffffffffffffffffffffffffffffffffffffffffffffffffffffffffffff82611432565b6114798683611432565b95508019841693508086168417925050509392505050565b6000819050919050565b60006114b66114b16114ac84610fd7565b611491565b610fd7565b9050919050565b6000819050919050565b6114d08361149b565b6114e46114dc826114bd565b84845461143f565b825550505050565b600090565b6114f96114ec565b6115048184846114c7565b505050565b5b818110156115285761151d6000826114f1565b60018101905061150a565b5050565b601f82111561156d5761153e8161140d565b61154784611422565b81016020851015611556578190505b61156a61156285611422565b830182611509565b50505b505050565b600082821c905092915050565b600061159060001984600802611572565b1980831691505092915050565b60006115a9838361157f565b9150826002028217905092915050565b6115c2826110c2565b67ffffffffffffffff8111156115db576115da610e63565b5b6115e582546113dc565b6115f082828561152c565b600060209050601f8311600181146116235760008415611611578287015190505b61161b858261159d565b865550611683565b601f1984166116318661140d565b60005b8281101561165957848901518255600182019150602085019450602081019050611634565b868310156116765784890151611672601f89168261157f565b8355505b6001600288020188555050505b505050505050565b7f4e487b7100000000000000000000000000000000000000000000000000000000600052601160045260246000fd5b60006116c582610fd7565b91507fffffffffffffffffffffffffffffffffffffffffffffffffffffffffffffffff82036116f7576116f661168b565b5b600182019050919050565b61170b81610fd7565b82525050565b60006020820190506117266000830184611702565b92915050565b7f43616e6e6f7420726567697374657220766f7465207965742e00000000000000600082015250565b600061176260198361129e565b915061176d8261172c565b602082019050919050565b6000602082019050818103600083015261179181611755565b9050919050565b7f43616e6e6f7420766f746520666f7220756e646566696e65642070726f706f7360008201527f616c2e0000000000000000000000000000000000000000000000000000000000602082015250565b60006117f460238361129e565b91506117ff82611798565b604082019050919050565b60006020820190508181036000830152611823816117e7565b9050919050565b7f596f7520616c726561647920766f7465642e0000000000000000000000000000600082015250565b600061186060128361129e565b915061186b8261182a565b602082019050919050565b6000602082019050818103600083015261188f81611853565b9050919050565b60006040820190506118ab600083018561106c565b6118b86020830184611702565b9392505050565b7f43616e6e6f74206765742077696e6e6572207965742e00000000000000000000600082015250565b60006118f560168361129e565b9150611900826118bf565b602082019050919050565b60006020820190508181036000830152611924816118e8565b9050919050565b7f4e487b7100000000000000000000000000000000000000000000000000000000600052603260045260246000fd5b600061196582610fd7565b915061197083610fd7565b92508282019050808211156119885761198761168b565b5b92915050565b60006040820190506119a36000830185610e0a565b6119b06020830184610e0a565b9392505050565b7f43616e6e6f7420726567697374657220766f74657273207965742e0000000000600082015250565b60006119ed601b8361129e565b91506119f8826119b7565b602082019050919050565b60006020820190508181036000830152611a1c816119e0565b905091905056fea2646970667358221220482a772ee255de90f99c8ea0cb8b125f83054c8af60b43c8f2765d066706843f64736f6c63430008140033",
  "linkReferences": {},
  "deployedLinkReferences": {}
}